:020000040800F2
:1000000020E200201503000875490008613E000841
:1000100079470008091D000855B3000800000000DA
:100020000000000000000000000000001197000820
:10003000D5390008000000002F190008BDA50008F0
:100040002F0300082F0300082F0300082F030008C8
:100050002F0300082F0300082F0300082F030008B8
:100060002F0300082F0300082F0300082F030008A8
:100070002F0300082F030008553200087D320008C6
:100080002F030008B53200082F0300082F030008D3
:100090000D1E00082F0300082F0300082F0300087F
:1000A00041A600082F0300082F0300082F030008B3
:1000B00089A60008F5A600082F0300082F030008F2
:1000C0002F0300082F0300082F0300082F03000848
:1000D0002F0300082F0300088DAB00084DAD00086A
:1000E0002F0300082F0300082F0300082F03000828
:1000F0002F0300082F0300082F0300082F03000818
:100100002F0300082F0300082F0300082F03000807
:1001100079A900082F0300082F0300082F03000807
:10012000DD3200082F0300082F0300082F0300080A
:100130002F0300082F0300082F0300082F030008D7
:10014000E11F00082F0300082F0300082F030008F9
:100150002F0300082F030008493300080DAF0008E3
:100160002F0300082F0300082F0300082F030008A7
:100170002F0300082F0300082F0300082F03000897
:100180002F0300082F03000800F002F800F0B2F877
:100190000AA090E8000C82448344AAF10107DA45E2
:1001A00001D100F0A7F8AFF2090EBAE80F0013F082
:1001B000010F18BFFB1A43F00103184700C90000E4
:1001C00020C900000A444FF0000C10F8013B13F066
:1001D000070408BF10F8014B1D1108BF10F8015BA0
:1001E000641E05D010F8016B641E01F8016BF9D193
:1001F00013F0080F1EBF10F8014BAD1C0C1B09D1EA
:100200006D1E58BF01F801CBFAD505E014F8016B5B
:1002100001F8016B6D1EF9D59142D6D370470000ED
:100220000023002400250026103A28BF78C1FBD8FF
:10023000520728BF30C148BF0B6070476E2900F0DD
:100240006B81702900F0AD8266290BF0B5866529B7
:100250000BF0B28667290BF0AF866129AFF30080FF
:1002600003681B0A28BF41F08001692900F018814A
:10027000642900F01581752900F012816F2900F0C2
:100280003B82782900F07982E92900F0D581E429C0
:1002900000F0D281F52900F0CF81EF2900F03882FB
:1002A000F82900F078820368DB0928BF41F080015B
:1002B000632900F0FA85732900F0FF85E32900F037
:1002C0000A86F32900F00F86002070471FB50BF057
:1002D0006EFE00F059FE0400002000210BF03AFEF3
:1002E000401C6060002000210BF01EFEE0601FBD7E
:1002F00010B510BD00F01BFE1146FFF7E7FF0BF035
:1003000025FB00F0F3FE03B4FFF7F2FF03BC0BF094
:10031000E6F900000948804709480047FEE7FEE784
:10032000FEE7FEE7FEE7FEE7FEE7FEE7FEE7FEE7A5
:1003300004480549054A064B70470000D9A5000846
:100340008901000820D4002020E2002020D60020CF
:1003500020D6002072B6704762B67047EFF3108067
:1003600072B6704780F31088704730BF704720BF67
:100370007047B0FA80F0704790FAA0F0B0FA80F0C1
:10038000704790FAA0F07047704700001CB50C460B
:10039000064B7B4469460090204600F0D6F80446A0
:1003A0000020694600F0E4F820461CBDDB01000097
:1003B00030B505460B462A4613F8014B12F8010BDF
:1003C00008B1A042F8D01CB1002802D06D1CF1E7A2
:1003D000284630BD704770477047704770B5044677
:1003E00085690068C10601D5302600E02026C007D7
:1003F00007D070BDD4E9012130469047206A401CE7
:1004000020626D1EF6D570BD70B504468569007812
:10041000C00707D170BDD4E9012120209047206A90
:10042000401C20626D1EF6D570BD09684A0501D5D5
:1004300040B27047C905FCD500B2704709684A054B
:1004400001D5C0B27047C905FCD580B2704770B500
:100450000C460546012A05D02878800600D5EA69B1
:10046000002302E0012305E05B1C934202D2E05C22
:100470000028F9D1A869E618C01AA861286A1844AA
:1004800028622846FFF7AAFF04E0D5E9012114F805
:10049000010B9047B442F8D32846FFF7B5FF70BD73
:1004A0002DE9F0410646002410687529314616A54D
:1004B00010D0FFF7BAFF002802DA404213A507E088
:1004C00031688A0701D512A502E0490704D511A5B4
:1004D000012401E0FFF7B2FF00210A2206F1240700
:1004E00009E0B0FBF2FCB0FBF2F302FB1C00303081
:1004F00078541846491C0028F3D123462A46304632
:10050000BDE8F04100F061BA000000002D000000DD
:100510002B0000002000000011680268006A5305EB
:1005200001D508700AE0D30501D5088006E013065E
:1005300003D5C217C1E9000200E00860012070473E
:1005400001694A1C02610878704700B58FB0CDE997
:1005500001310021059105497944CDE90310114687
:10056000684600F029F90FB000BD0000E5FFFFFF6D
:100570000A6802F8010B0A60704700002DE9FF5F6E
:1005800015468A460446DFF8AC80F8440027D8E9CF
:1005900000103E46CDE9001010E03AF816106A4609
:1005A00002A800F0A4FC411C07D02178890603D5DD
:1005B000E269391891420DD80744761C20788006EC
:1005C00002D5E069B84205DDAE42E6DB3AF8160036
:1005D0000028E2D1A069C01BA0612046FFF7FEFE03
:1005E000D8E90010CDE90010002017E03AF8181003
:1005F0006A4602A800F07BFCB0F1FF3F81460BD0B9
:1006000000250DF1080B05E0D4E901211BF80500D8
:1006100090476D1C4D45F7D308F10100B04280466C
:10062000E4DB206A384420622046FFF7EDFEBDE897
:10063000FF9F000056C400002DE9F0418046D21D06
:1006400022F007020025D2E90002F52915A614D0F0
:10065000011E72F1000106DA0023D0EB030063EB08
:10066000020211A608E0D8F800108B0701D50FA6EA
:1006700002E0490701D50EA601251146002408F124
:10068000240704E000F05CF930323A55641C50EA6B
:100690000102F7D12B46324621464046BDE8F041E3
:1006A00000F093B9000000002D0000002B000000B6
:1006B0002000000030B4002100F1240408E002F022
:1006C0000705D208303542EA4372DB086554491CFD
:1006D00052EA0305F3D10468002310A2250708D5C8
:1006E00004F020040C4304D0C46901230CA2641E4E
:1006F000C46130BC00F069B910B5044621461068E9
:10070000FFF79CFE02462046BDE810400023D1E7DB
:10071000D21D22F00701D1E90023CBE70000000041
:1007200030000000F0B40D460188090502D5214CC7
:100730007C4402E01F4C7C440E34002100F124066E
:1007400008E002F00F071209E75D42EA03721B0995
:100750007754491C52EA0307F3D1027800231207A9
:1007600004D5702D06D009B1022311342246F0BC05
:1007700000F02BB901231034F8E770B504460D469C
:1007800021461068FFF75AFE024629462046BDE87A
:1007900070400023C6E7D21D22F00703D3E90023EF
:1007A000C0E70368126843F0200303600823C361B5
:1007B0000023B7E7B8C200002DE9F05F8946044680
:1007C0004FF0000ADFF874B1FB44C0F820A02046C7
:1007D000E1688847002874D0252806D0D4E9012193
:1007E0009047206A401C2062F1E700265F462046C1
:1007F000E16888472028054607DB312D05D27819A6
:1008000010F8200C08B10643F1E7B00701D526F037
:100810000406C4F81CA00027C4F818A02A2D09D08B
:1008200028460AF055FF38B304EB8708303DC8F876
:10083000185019E059F8041B204604EB8702916117
:10084000E1688847012F054618D1E069002820DAC1
:1008500026F020061DE0D8F8180000EB800005EB1C
:1008600040003038C8F818002046E168884705463F
:100870000AF02EFF0028EED1012F0AD02E2D08D12C
:100880002046E16888477F1C0546022F46F0200677
:10089000C4DBA069002803DA404246F00106A061EB
:1008A000F00701D026F010066C2D0BD0682D09D072
:1008B0004C2D39D06A2D35D0742D35D07A2D33D0CA
:1008C00016E038E0E1682F4620468847B8420546E2
:1008D00009D16C2F26D04FF48060E1680643204692
:1008E0008847054604E06C2F1AD04FF48070064309
:1008F0000DB3A5F14100192802D8203546F4006651
:100900004A462946204626604E46FFF797FC80B1AE
:1009100001280BD0F61D26F0070000F1080956E764
:100920004020E4E78020D8E70020D6E706F104095C
:100930004DE7284652E7206ABDE8F09F48C2000014
:1009400030B5B0F10A024FEA900E71F100034EEAA1
:10095000817EB0EB0E0061EB91014FEA101E4EEA72
:10096000017E10EB0E0041EB11114FEA102E4EEA02
:10097000016E10EB0E0041EB11214FEA104E4EEAD2
:10098000014E10EB0E0041EB1141401841F1000106
:100990004FEAD00040EA41704FEAD10110EB8005E8
:1009A0004FEA810444EA907444EB01046D1944EB6E
:1009B0000404521BA3414FF0000348BF0A3200D584
:1009C00030BD401C41F1000130BD2DE9F0470D461E
:1009D00099469246044600F124080168880604D529
:1009E000E06921F01001216000E00120A84201DD52
:1009F000471B00E00027A1697A1902EB0900081AD9
:100A0000A0612078C00602D42046FFF7E7FC00264C
:100A100008E0D4E901211AF806009047206A401C3A
:100A2000761C20624E45F4DB2078C0060AD52046AD
:100A3000FFF7D4FC06E0D4E9012130209047206A7A
:100A4000401C2062381EA7F10107F4DC07E0D4E95E
:100A5000012118F805009047206A401C2062281EDA
:100A6000A5F10105F3DC2046FFF7CEFC2078000657
:100A700002D50220BDE8F0870120FBE770472DE991
:100A8000FF4F0C461E464FF0FF378BB0D2E90001F6
:100A9000DDF860800A908A46C1F30A5505B93D46E3
:100AA000002108464FF00000BAF1000F00F44000AA
:100AB00005DA00EB80004FF4400101EA50004FEAF4
:100AC0009059B9F1010F00DDB9460A9850EA4A0081
:100AD0000ED044F61050A5F2FF3545432F14B8F15F
:100AE000000F1ED07542291E1EDDC9F100021CE058
:100AF000B8F1010F4FF0000001D0302103E0F243C4
:100B000005E02154401CB042FBDB304600220021AE
:100B100021540B99C1F80880C1E900200FB0BDE84D
:100B2000F08FBD1B6D1CDEE74A4600DA694206A85D
:100B300000F06EFA06AB93E8070003AB83E807000A
:100B400050460A9900F01CFB8DE80700A0F5005004
:100B50001F3800900398002D09DD42F21F014A461C
:100B6000084403A90390684600F07BFD08E0A0F567
:100B700000504A461F3803A90390684600F085FDDF
:100B80008DE807000004000C03D04FF0FF3041084F
:100B900000E01046B8F1000F03D000220092154685
:100BA0001EE0751E05D4FFF7CBFE303262556D1E78
:100BB000F9D5B3460122084302D000227F1C04E08D
:100BC0002078302801D100227F1E002A099786D084
:100BD0001DE0112D07DAFFF7B3FE303262556D1CB0
:100BE00050EA0102F5D1084302D00098C8B10EE0E6
:100BF0000021681E05E0235C625C63542254401EA1
:100C0000491C8142F7DBAB46A81B401E099000201F
:100C100004F80B000B98099AC0F80880C0E9002B73
:100C20007CE711264FF0000859E72DE9F04F884680
:100C30000446D21D22F0070191B0D1E90001CDE9AF
:100C40000A010AF02DFD02460B98C00F01D02D209D
:100C500007E02068810701D52B2002E0202101EA6E
:100C6000C000032A099001D0072A05DB034641464C
:100C7000204600F08DF90BE12078800601D5E0696F
:100C800000E00620B8F1650F814606D0B8F1660F86
:100C900018D0B8F1670F70D131E00020B9F1110F11
:100CA000009001DB112301E009F101030AAA01A967
:100CB0000CA8FFF7E4FEDDE90C70002609F1010540
:100CC000834647E001204B4600904FF000470AAAB8
:100CD00001A90CA8FFF7D3FEDDE90DB00C995D4624
:100CE000002610B909F101000D18B9EB050003D475
:100CF000C0F1FF3609F10105A5EB09002BE0B9F1C0
:100D0000010F01DA4FF001090020B9F1110F009035
:100D1000484601DD112300E003460AAA01A90CA8F8
:100D2000FFF7ADFEDDE90C704D46002683462078C6
:100D300000070AD4AB4500DA5D4601A8012D04DDA9
:100D4000411911F8011C302907D04F4502DA17F17B
:100D5000040F04DA012082460FE06D1EEEE7002F3B
:100D600002DCED1B3E4403E0781CA84200DD7D1C44
:100D7000B81B00F1010A4FF000472078000703D4A8
:100D8000AA4501DB4FF0FF3A0021B7F1004F0DF10A
:100D900043088DF8431024D002202B23002F01DAC2
:100DA0007F422D230A21021EA0F1010000DC5FB169
:100DB00097FBF1FC97FBF1F201FB1C7C17460CF151
:100DC000300C08F801CDEEE7A8F10100037021888E
:100DD000090501D5452100E06521A0F1010800F8D1
:100DE000011C09980FA9A1EB0807FF1D00B1012004
:100DF000411901EBEA70A1693844081A401EA0614C
:100E00002078C00602D42046FFF7E8FA099828B1F6
:100E1000D4E901219047206A401C20622078C00656
:100E200022D52046FFF7DAFA1EE0002E04DBB34598
:100E300002DD01A8805D00E03020D4E90121904767
:100E4000206A401C2062761CAAF101005FEA000AB9
:100E50000AD100F099F8C0680168405CD4E901212A
:100E60009047206A401C2062281EA5F10105DCDCA9
:100E700007E0D4E9012118F8010B9047206A401CD3
:100E80002062381EA7F10107F3DC2046FFF7BCFA09
:100E9000032011B043E610B5436913B1AFF30080EE
:100EA00001E0FFF7D4FA012010BD127800F124010F
:100EB0000A7000224A700122EDE711684FF0FF32FC
:100EC000E9E710B5436913B1AFF3008001E0FFF724
:100ED00055FB012010BD128800F1240182840022FC
:100EE000C2840122EDE711684FF0FF32E9E770B5E7
:100EF00016460C46054600F03FF8036893F80101DA
:100F0000012806D0FF2C0FD8185D68B101202C7085
:100F100070BDD3F807013246214603F2071303449C
:100F20002846BDE8704018474FF0FF3070BD754649
:100F300000F0E2F8AE4605006946534620F007008F
:100F4000854618B020B5FFF7F3F9BDE820404FF013
:100F500000064FF000074FF000084FF0000B21F0A3
:100F60000701AC46ACE8C009ACE8C009ACE8C00970
:100F7000ACE8C0098D46704710B500F005F8001DBB
:100F800010BD00BFD1AF000000487047E0D3002083
:100F90002DE9F0411F46044603260168072A01F4A3
:100FA000006004DB08B116A505E016A503E008B152
:100FB00015A500E015A521F010002060A069C01E55
:100FC000A0610FB1401EA0612046FFF707FA4FB1A4
:100FD000D4E9012138469047206A401C2062C01C99
:100FE000206206E0206AFAE7D4E9012115F8010B36
:100FF0009047761EF8D22046FFF706FABDE8F0814A
:101000004E414E006E616E00494E4600696E6600AC
:101010002DE9F047814616468AB0334878440DC81A
:101020008DE80D0030487844801C03AC0DC884E87E
:101030000D0041F69B300844372190FBF1F290FB04
:10104000F1F5A5F1800501FB12041B3C02D56442B9
:10105000012000E00020DFF890A080460027FA443D
:10106000AAF1BE0A0DE0E00709D03246684607EB58
:1010700047010AEB810100F008FB8DE807006410CE
:101080007F1C002CEFD1184F7F44AC3F18E0E807DD
:1010900014D007EB04100DF1180A90E80E008AE84E
:1010A0000E00C068F04201D198190890324606A996
:1010B00003A800F0EAFA03AB83E807006D10641C94
:1010C000002DE4D132466946B8F1000F03A802D0E2
:1010D00000F0C7FA01E000F0D8FAC9E90001C9F848
:1010E00008200AB0BDE8F08784BA00000446AFF3D8
:1010F00000802046FFF707F900487047C0D3002062
:101100004FF0013C50F8042B51F8043B9A4221D196
:10111000A2EB0C03934313EACC1317D150F8042B22
:1011200051F8043B9A4215D1A2EB0C03934313EA06
:10113000CC130BD150F8042B51F8043B9A4209D13F
:10114000A2EB0C03934313EACC13DBD04FF0000067
:10115000704700BFD01A01BAB1FA81F101F018014D
:1011600022FA01F0CB40C1F12001DBB2C0B2C01ABB
:101170002CFA01F3D11A914311EAC311E6D1704759
:101180005FEA400C08BF91F0000F4FEA8C234FEA52
:10119000C12243EA51514FEA1C5018BF00F5F040FC
:1011A0004FEA300018BF41F000415FEA6C5C00F08C
:1011B0002980BCF1FF3F08BF40F080407047130C0E
:1011C00006BF12044FF0100C4FF0000C130E04BFBA
:1011D00012020CF1080C130F04BF12010CF1040CE5
:1011E000930F04BF92000CF1020CD30F04BF520006
:1011F0000CF1010C11464FF00002A0F11F00A0EB12
:101200000C00704711F0004F08BF704731F00041EB
:101210003FF4D5AF0B0C06BF09044FF0100C4FF094
:10122000000C0B0E04BF09020CF1080C0B0F04BFDD
:1012300009010CF1040C8B0F04BF89000CF1020CA6
:10124000CB0F04BF49000CF1010CCCF12003A0EB43
:101250000C0022FA03F302FA0CF241EA030100F156
:101260000100704720F07F4C80EA030023F07F47A5
:10127000ACEB070303F57C5300F0004003F1FF03E0
:101280002DE980494FEA154B09B44FEA144325EA8A
:101290000B4E24EA03480FF2042606EB13274908F5
:1012A0003E785FEA320203FB0667C7F5000707FBDB
:1012B00006F64FEA54374FEAD64606F1020607FB18
:1012C000066CCCF1005C4FEA1C472CEA074C07FB8C
:1012D00006F40CFB06F504EB15464FEA961634BFF0
:1012E00000204FF000404FEAD13706FB07FC4FEAE1
:1012F0001C4C0CFB0BF7D21B03FB0CF761EB07013B
:101300000CFB0EF7B0EB074072EB17420CFB08F733
:1013100034BFA2EB0742B2EB074261EB17414FEA41
:101320000C444FEA910706FB07FC4FEA1C4C0CFBF0
:101330000BF7B0EBC74072EB573203FB0CF734BF2F
:10134000A2EBC742B2EBC74261EB57310CFB0EF781
:10135000B0EBC70072EB57720CFB08F734BFA2EB7F
:10136000C702B2EBC70261EB5771039F4FEA81617D
:1013700041EA921104EBCC044FEAD1374FEA826282
:1013800006FB07FC42EA90124FEA80604FEA1C4CD1
:101390000CFB0BF7D21B03FB0CF761EB07010CFBFB
:1013A0000EF7B0EB074072EB17420CFB08F734BFA7
:1013B000A2EB0742B2EB074261EB17414FEA8C55B3
:1013C0004FEA910704EB9C2406FB07FC4FEA1C4CF8
:1013D0000CFB0BF7B0EBC74072EB573203FB0CF77B
:1013E00034BFA2EBC742B2EBC74261EB57310CFBF3
:1013F0000EF7B0EBC70072EB57720CFB08F734BF67
:10140000A2EBC702B2EBC70261EB577115EB4C259B
:101410004FEA816141EA92114FEA82624FEAD13785
:1014200042EA901206FB07FC44F100044FEA806098
:101430004FEA1C4C0CFB0BF7D21B03FB0CF761EBC8
:1014400007010CFB0EF7B0EB074072EB17420CFBE9
:1014500008F734BFA2EB0742B2EB074261EB17413A
:1014600015EB1C154FEA813141EA92414FEA823275
:1014700042EA90424FEA80304FEA0C7644F1000491
:1014800048EA03434EEA0B484FF0000EB2EB080C5B
:1014900071EB030724BF624639464EEB0E0E4FF048
:1014A000000B0018524149414BEB0B0BB2EB080CFF
:1014B00071EB03077BF1000B24BF624639464EEB0C
:1014C0000E0E4FF0000B0018524149414BEB0B0B35
:1014D000B2EB080C71EB03077BF1000B24BF6246F3
:1014E00039464EEB0E0E51EA020718BF46F00106D0
:1014F00016EB0E7655F1000254F1000103D5BDE85C
:101500008901BDE80088BDE88901BDE80048B61939
:10151000524141EB0101A3F10103704780807F7EBE
:101520007D7C7B7A79787776767574737271717059
:101530006F6E6E6D6C6C6B6A6A696868676666650B
:101540006464636362616160605F5F5E5E5D5D5C99
:101550005C5B5B5A5A59595858575756565555550A
:101560005454535352525251515050504F4F4F4E6A
:101570004E4D4D4D4C4C4C4B4B4B4A4A4A494949B8
:1015800048484847474747464646454545444444FA
:10159000444343434342424242414141002B26D40B
:1015A000770021D01CB54FEA370703B44FF0100085
:1015B0004FF010014FF000000FBCBDE810400BF1E0
:1015C000010BBBF1010F08BF5FEA170722BF12F141
:1015D000010211F101014FF0004143F1000300F05D
:1015E000004043EA00007047F9D35708DAE746EABB
:1015F000064613F1400F4FEA16461FDD13F1200F88
:10160000DFBF16430A46002120335B42C8D0C3F136
:10161000200746EA064602FA07F74FEA164646EA68
:101620000706C3F1200722FA03F201FA07F721FAAD
:1016300003F14FF0000342EA0702B1E746EA02066F
:1016400046EA06464FEA164646EA0106BCBF46EAA7
:101650000646360C4FF000034FF000024FF0000139
:101660009EE72DE9C048934630B491E8380007C89A
:1016700031EA400C48BF34EA430C03D5FFF7F2FDD2
:10168000FFF78CFFF0BCBDE800882DE9C048934609
:1016900030B491E8380007C810F0804F08BF13F04D
:1016A000804F03D100F005F8FFF778FFF0BCBDE8EC
:1016B000008820F07F4780EA030023F07F4C07EB8F
:1016C0000C03A3F57C5300F00040A3F1FE0392F05D
:1016D000000F00F0B38095F0000F00F077802DE947
:1016E00001494FEA11404FEA144621EA004800FB45
:1016F00006FC24EA064708FB06F607FB08F800FB91
:1017000007F718EB06484CEB164C4FEA124B18EB58
:1017100007484FEA15464CEB174022EA0B4E0BFBED
:1017200006FC25EA06470EFB06F607FB0EFE0BFB42
:1017300007F71EEB064E4CEB164C4FF000061EEB67
:10174000074E4CEB174B18EB0B0840F1000018EB61
:101750000E0B58EB000840F100008F1A4FF000010B
:101760003CBFC943661B14BFB5EB040C00213CBF52
:10177000C943F61B4FEA17444EEA8E0E27EA04458A
:101780004FEA1C4704FB07622CEA074C05FB07F7EE
:101790000CFB05F604FB0CFC16EB074642EB17426C
:1017A00016EB0C4642EB1C421BEB060658EB020202
:1017B000414146EA9E0601D5BDE80189B61952416C
:1017C00041EB0101A3F10103BDE801894FEA144592
:1017D0004FEA114724EA054621EA074C05FB07F4C6
:1017E00006FB07F70CFB06F105FB0CFC11EB0741B0
:1017F00044EB17444FEA124711EB0C4144EB1C44F5
:1018000022EA074C05FB07F206FB07F70CFB06F67E
:1018100005FB0CFC16EB074642EB174216EB0C4699
:1018200042EB1C456A1854F1000148BF7047B619D5
:10183000524141EB0101A3F10103704795F0000F04
:1018400037D04FEA11424FEA144721EA024624EA10
:10185000074C02FB07F106FB07F70CFB06F402FB43
:101860000CFC14EB074441EB17414FEA154714EB0E
:101870000C4441EB1C4125EA074C02FB07F506FB33
:1018800007F70CFB06F602FB0CFC16EB074645EBD4
:10189000174516EB0C4645EB1C42121951F100019D
:1018A00048BF7047B619524141EB0101A3F1010352
:1018B00070474FEA14454FEA114724EA054621EAEA
:1018C000074C05FB07F106FB07F70CFB06F24FF090
:1018D000000605FB0CFC12EB074241EB174112EB33
:1018E0000C4251EB1C4148BF7047921841EB01017B
:1018F000A3F101037047000022484FF6FF71017009
:10190000002080F309882048016881F308881F4877
:101910004FF08051016062B6FEE71C484FF08051E5
:101920000160704719484FF080510160704772B6EE
:10193000EFF3098050B11EF0100F08BF20ED108AA0
:10194000203880E8F00F12490968086000B5114896
:1019500080475DF804EB104810490A7802700C4883
:101960000F490A680260106890E8F00F20301EF0FE
:10197000100F08BFB0EC108A80F309884EF0040EF7
:1019800062B6704722ED00E09001002004ED00E017
:1019900088010020495F000816010020170100207F
:1019A0008C01002000B58DB00121042007F0F0FA71
:1019B0000121080207F00CFB0E200B9003208DF88C
:1019C000300000208DF833000BA9204802F09AF86F
:1019D000002007900A9009904FF48030089007A8E3
:1019E00000F044F80020019001208DF808008DF8E7
:1019F000090000200390059003208DF8180001A92C
:101A0000134800F061F8072301220B21104800F071
:101A100085F8072302220C210D4800F07FF80723E8
:101A200003220D210A4800F079F80121084800F04E
:101A300040F80121064800F031F80121044800F087
:101A400009F8034800F0C6F80DB000BD00080240D8
:101A50000020014021B1826842F00102826003E06F
:101A6000826822F001028260704700000021084A6B
:101A70001168084A1140D0E900231A4383681A43C9
:101A8000C3681A431143044AC2F8041370470000A4
:101A900004230140E030FCFF0020014021B18268B6
:101AA00042F48072826003E0826822F48072826075
:101AB000704721B1826842F40072826003E082685C
:101AC00022F400728260704730B502460020002385
:101AD0005068104C20400D790C6844EA05242043DE
:101AE000506090680C4C2040D1E903542C438D6821
:101AF0002C434D7944EA450420439060D06A20F499
:101B000070000C7D641EE4B2234340EA0350D062AF
:101B100030BD0000FFFEFFFCFDF7FFC0F0B504463E
:101B20000D4600200021092D11DDE068A5F10A060F
:101B300006EB4607072606FA07F18843A5F10A06D1
:101B400006EB460603FA06F10843E0600CE0206964
:101B500005EB4507072606FA07F1884305EB45061E
:101B600003FA06F108432061072A0FDA606B561E5C
:101B700006EB86071F2606FA07F18843561E06EB7A
:101B8000860605FA06F10843606322E00D2A0FDAA3
:101B9000206BD61F06EB86071F2606FA07F188433F
:101BA000D61F06EB860605FA06F10843206310E00F
:101BB000E06AA2F10D0606EB86071F2606FA07F17A
:101BC0008843A2F10D0606EB860605FA06F10843E6
:101BD000E062F0BD816841F08041816070470000A3
:101BE00070B53F480078801E81B23E4800F0BEFDCF
:101BF0000446E5B2260A3A480078801E3949085C56
:101C0000A84234D136480078401E085CB0422ED13C
:101C100008464078042817D006DC01280BD002289B
:101C20000CD003281CD10CE0052810D0062811D0B8
:101C3000102815D111E007F04FFA17E007F0CAFAA3
:101C400014E007F065FB11E007F0C0FB0EE007F0C1
:101C500039FC0BE007F07AFC08E007F0C5FC05E072
:101C600020494878042109F0F3FD00BF36E01D4803
:101C7000407804281DD006DC01280BD002280ED0A5
:101C800003282AD110E0052818D006281BD01028D8
:101C900023D11DE00821012009F0DAFD1DE0082113
:101CA000022009F0D5FD18E00821032009F0D0FD3D
:101CB00013E00821042009F0CBFD0EE008210520E7
:101CC00009F0C6FD09E00821062009F0C1FD04E085
:101CD0000821102009F0BCFD00BF00BF70BD00004E
:101CE000010000205275002000BF05E005230022FE
:101CF0001146104609F0F5FCF8E71FB5684607F0F5
:101D000077F9019804B010BD00BFFEE72DE9F0415E
:101D10008AB004460D4616461F46DDF84080012174
:101D2000084607F035F90121480607F041F94FF45C
:101D3000C050089002208DF8240000208DF8260065
:101D400003208DF8250001208DF8270008A92D48D3
:101D500001F0D8FE09220B212A4801F01BFF0922BD
:101D60000C21284801F016FF00208DF81A008DF88C
:101D70001B008DF81C0001208DF81D0000208DF83F
:101D80001E008DF81F008DF816808DF817408DF815
:101D900018608DF81950ADF8147005A91A4800F0B4
:101DA000AEFA00208DF80E008DF80F0001208DF89E
:101DB00010000020ADF80400ADF80600ADF80800F2
:101DC000ADF80A00ADF80C0001208DF8110001A853
:101DD00000F008FA012202210B4800F087FA1420D3
:101DE0008DF8000001208DF8010000208DF8020020
:101DF00001208DF80300684602F0BEFD00200AB005
:101E0000BDE8F081000002400064004010B5154AB2
:101E10000021154800F0FDFA12480068132820D16F
:101E20001048C07A1149A1F84E000E48007BA1F875
:101E300050000C48407BA1F852000A48807BA1F872
:101E400054000848C07BA1F856000648007CA1F861
:101E500058000448407CA1F85A000248807CA1F850
:101E60005C0010BDD89A002000640040BA9B00209E
:101E7000F0B585B007460D46002410200090019073
:101E800000208DF808008DF809008DF80A5000BF79
:101E900005E0395D0DF10B000155601C84B2AC42C8
:101EA000F7DB69460C4800F02CFB0646002401E0F5
:101EB000601C84B23146084800F0B6FB18B940F601
:101EC000FF708442F4DB40F6FF70844202DB0120A5
:101ED00005B0F0BD0020FBE7006400402DE9F041B3
:101EE0008AB004460D4616461F46DDF840800121A3
:101EF000022007F04DF801214FF0C06007F058F8BC
:101F00006020089002208DF8240000208DF8260023
:101F100003208DF8250001208DF8270008A92E4800
:101F200001F0F0FD092205212B4801F033FE0922C2
:101F30000621294801F02EFE00208DF81A008DF8A8
:101F40001B008DF81C0001208DF81D0000208DF86D
:101F50001E008DF81F008DF816808DF817408DF843
:101F600018608DF81950ADF8147005A91B4800F0E1
:101F7000C6F90E208DF80E0000208DF80F0001200C
:101F80008DF810000020ADF80400ADF80600ADF8A3
:101F90000800ADF80A00ADF80C0001208DF8110022
:101FA00001A800F01FF9012202210C4800F09EF95F
:101FB00040208DF8000001208DF8010002208DF8EE
:101FC000020001208DF80300684602F0D5FC0020D5
:101FD0000AB0BDE8F0810000000402400068004043
:101FE00010B55B4A00215B4800F013FA58480068BE
:101FF00001283AD15648407B00F080005649C8720B
:102000000846C07A88B35248C07A08705048007BAE
:1020100048804F48407B00F0010008714C48407BED
:1020200000F0020048714A48407B00F004008871CB
:102030004748407B00F00800C8714548407B00F0ED
:10204000100008724248407B00F02000487240486F
:10205000407B00F0400088723D48407B08733F4859
:102060000068C0433E49C1F884023B48C07A00285A
:1020700063D101203B49087048700220887003201A
:1020800009F058F83248006802285FD13048C07A19
:10209000FF281ED12E48007BFF281AD12C48407BF8
:1020A000FF2816D12A48807BFF2812D101202E4913
:1020B0000870487088706620C87004212A4800F0B3
:1020C00059F82648001F0068C0432549C1F880021E
:1020D0003CE01F48C07A204908701D48007B4880BA
:1020E0001B48407B00F0010008711948407B00F05C
:1020F000020048711648407B00F0040088711448C3
:10210000407B00F00800C8711148407B00F01000CF
:1021100008720F48407B00F0200048720C48407B5A
:1021200000F0400088720A48407B08730F4800683E
:10213000C0430F49C1F8A40208E001200949087012
:10214000022048700320887008F0F4FF10BD0000E2
:10215000D89A002000680040EC9A00208402424295
:1021600000004242B67A002018000020A4824042BB
:1021700000804042F0B585B007460D46002410208F
:1021800000901320019000208DF808008DF80900C0
:102190008DF80A5000BF05E0395D0DF10B000155C7
:1021A000601C84B2AC42F7DB69460D4800F0A9F927
:1021B0000646002401E0601C84B23146084800F065
:1021C00033FA18B940F6FF708442F4DB40F6FF7032
:1021D000844202DB012005B0F0BD0020FBE70000D7
:1021E0000068004010B50021837A012202FA03F151
:1021F0003D4A126842F001023B4B1A603A4A1C32D7
:1022000012688A43384B1C331A60027BCAB9364ABB
:102210000C3212688A43344B0C331A604288C388EC
:1022200042EA0343304A4032847A42F8343002882A
:10223000838842EA03432C4A4032847A02EBC40288
:102240005360027B012A19D1274A0C3212680A43D3
:10225000254B0C331A604288038842EA0343224A22
:102260004032847A42F83430C288838842EA034399
:102270001D4A4032847A02EBC4025360C27A3AB9F2
:10228000194A121D12688A43174B1B1D1A6006E07B
:10229000154A121D12680A43134B1B1D1A6002894E
:1022A00032B9114A143212688A430F4B14331A6040
:1022B0000289012A06D10C4A143212680A430A4BD9
:1022C00014331A60427B012A06D1074A1C32126875
:1022D0000A43054B1C331A60034A126822F00102BC
:1022E000014B1A6010BD0000006600401AB143693E
:1022F0000B43436102E043698B434361704730B550
:10230000024600200023146824F0020414601468BC
:1023100044F00104146000E05B1C546804F0010404
:102320001CB94FF6FF74A342F6D1546804F00104BF
:102330000CB900206CE08C79012C04D1146844F0B5
:102340008004146003E0146824F080041460CC79E5
:10235000012C04D1146844F04004146003E01468B4
:1023600024F0400414600C7A012C04D1146844F069
:102370002004146003E0146824F0200414604C7AF4
:10238000012C04D1146844F01004146003E01468B4
:1023900024F0100414608C7A012C04D1146844F0E9
:1023A0000804146003E0146824F008041460CC7A74
:1023B000012C04D1146844F00404146003E0146890
:1023C00024F0040414608C78A407CD7844EA0564F2
:1023D0000D7944EA05444D7944EA05540D886D1E93
:1023E0002C43D461146824F001041460002300E03D
:1023F0005B1C546804F001041CB14FF6FF74A34247
:10240000F6D1546804F001040CB1002000E0012072
:1024100030BD10B500F5D87303EB01131B6803F052
:1024200004031372137A53B900F5D87303EB011345
:102430001B6840F2FF7404EA5353136009E000F58F
:10244000D87303EB01131B686FF0604404EAD303F5
:10245000536000F5D87303EB01131B6803F002030C
:10246000537200F5D87303EB01135B6803F00F039D
:10247000937200F5D87303EB01135B681B0AD374E6
:1024800000F5D87303EB01139B68D37200F5D87382
:1024900003EB01139B681C0A147300F5D87303EB5C
:1024A00001139B681C0C547300F5D87303EB0113E4
:1024B0009B681B0E937300F5D87303EB0113DB6865
:1024C000D37300F5D87303EB0113DB681C0A147493
:1024D00000F5D87303EB0113DB681C0C547400F592
:1024E000D87303EB0113DB681B0E937421B9C36827
:1024F00043F02003C36003E0036943F0200303615A
:1025000010BD10B502460020936803F08063B3F15C
:10251000806F00D110E0936803F00063B3F1006FA7
:1025200001D1012008E0936803F08053B3F1805F8C
:1025300001D1022000E00420042874D002F5C07309
:1025400003EB00131B6803F0010402F5C07303EBF7
:1025500000131C600B7A7BB94B7A0C8843EA445316
:1025600002F5C07404EB00142468234302F5C07420
:1025700004EB0014236010E00B7A4C6843EAC403B8
:102580004C7A234302F5C07404EB001424682343FF
:1025900002F5C07404EB001423608B7A03F00F0380
:1025A0008B7202F5C07303EB00135B6823F00F041A
:1025B00002F5C07303EB00135C6002F5C07303EB1C
:1025C00000135B688C7A234302F5C07404EB00149B
:1025D00063608B7B1C064B7B44EA03440B7B44EA21
:1025E0000323CC7A234302F5C07404EB0014A360E8
:1025F0008B7C1C064B7C44EA03440B7C44EA03239B
:10260000CC7B234302F5C07404EB0014E36002F5B5
:10261000C07303EB00131B6843F0010402F5C073A1
:1026200003EB00131C6010BD10B50246002321B15E
:10263000012907D002290FD109E090681D4C00EA5A
:1026400004030BE090681C4C00EA040306E0906869
:102650001A4C00EA040301E0002300BF00BF184C3D
:10266000181BA34216D007DC83B16FF080601844BA
:1026700070B1022818D111E0B0F5007F10D0114CD4
:10268000204448B1B0F5003F0ED10BE002230DE02D
:1026900000230BE0002309E0002307E0012305E00D
:1026A000012303E0012301E0002300BF00BFD8B2F3
:1026B00010BD000003000004000300080000031028
:1026C000000100080001FFF710B500F01FF800F04E
:1026D00019F810BD10B5002400BF00BFFDF73EFE85
:1026E000044600BF00BF1021054802F047F800BFB4
:1026F00000BF2046FDF736FE00BF00BF10BD000042
:1027000040B8002010B5FFF7E5FF10BD10B5002060
:102710000249086000F00AF810BD0000BC0000206B
:102720000149086070470000BC00002010B5FFF7A9
:10273000E4FA04460848006840F0807006490860E2
:102740000020064948600846006840F00100086023
:102750002046FFF7E5FF10BDFCED00E0001000E0B3
:102760000149486870470000001000E030B502469B
:102770000B464FF6FF70002112E0555C68400024C4
:102780000AE000F0010525B140104AF20105684059
:1027900000E04010651CACB2082CF2DB4D1CA9B265
:1027A0009942EADB30BD000010B50446012C0CD183
:1027B0004749087000204870012088700020C870C8
:1027C00004214348FFF754FB81E0022C0DD1002087
:1027D0003F49087001204870002088700120C870AF
:1027E00004213B48FFF744FB71E0032C0BD1002090
:1027F00037490870487001208870C8700421344837
:10280000FFF736FB63E0042C0BD101203049087040
:10281000487000208870C87004212D48FFF728FBFD
:1028200055E0052C0DD10120294908700020487081
:10283000012088700020C87004212548FFF718FB8C
:1028400045E0062C0BD100202149087048708870A3
:102850000120C87004211E48FFF70AFB37E0072C4F
:102860000DD101201A49087000204870012088709D
:102870000020C87004211648FFF7FAFA27E0082C58
:102880000CD1002012490870012048700020887087
:10289000C87004210E48FFF7EBFA18E0092C0AD1A2
:1028A00001200B49087048708870C87004210848DE
:1028B000FFF7DEFA0BE00A2C09D10020044908706A
:1028C00048708870C87004210148FFF7D1FA10BD24
:1028D0004A00002000200749488388820120A1F88F
:1028E0009600A1F89800002048854880088148811A
:1028F00088817047BA9B002001200449A1F872002A
:102900000020A1F87400A1F876007047BA9B00205F
:10291000FEE3FB4890F85E00FA490870F84890F82A
:102920005E00F9490870F948407900287ED1F848DE
:10293000007800281ED0F548407801281AD1F548C3
:102940000078B8BBEE48B0F84E00EE4909788842EE
:1029500006DDEB48B0F85000EA49097888420ADC05
:102960000120EA49C8700220E549A1F88C00052041
:1029700001F038FFD2E3E248B0F84E00E1490978AF
:102980008842F7DDDE48B0F85000DE490978884219
:10299000F0DD0020DD49C8700520D949A1F88C0080
:1029A000002301221946184608F09BFE0120D74952
:1029B0008871B3E3FFE7D7480078012839D1D048C0
:1029C000B0F85200CF490978884206DDCC48B0F80B
:1029D0005400CC49097888420ADC0120CB49C870F0
:1029E0000220C749A1F88C00052001F0FBFE95E309
:1029F000C348B0F85200C34909788842BADDC048DC
:102A0000B0F85400BF4909788842B3DD0020BF49BF
:102A1000C8700520BA49A1F88C000023012219468C
:102A2000184608F05EFE0120B84900E0F1E0887128
:102A300074E3B8480078022837D1B148B0F856009E
:102A4000B0490978884206DDAD48B0F85800AD4974
:102A5000097888420ADC0120AC49C8700220A849E4
:102A6000A1F88C00052001F0BDFE57E3A448B0F8A2
:102A70005600A449097888429BDDA148B0F8580067
:102A8000A0490978884294DD0020A049C87005203B
:102A90009B49A1F88C00002301221946184608F032
:102AA00020FE01209949887138E39A48007803286C
:102AB00037D19348B0F85A0092490978884206DD28
:102AC0008F48B0F85C008F49097888420ADC012001
:102AD0008E49C87002208A49A1F88C00052001F0B7
:102AE00081FE1BE38648B0F85A008649097888427F
:102AF0009EDD8348B0F85C0082490978884297DD02
:102B000000208249C87005207D49A1F88C0000236F
:102B100001221946184608F0E4FD01207B4988711E
:102B2000FCE27C480078042837D17548B0F85C0096
:102B300074490978884206DD7148B0F85600714939
:102B4000097888420ADC01207049C87002206C496B
:102B5000A1F88C00052001F045FEDFE26848B0F8DE
:102B60005C006849097888429EDD6548B0F85600E7
:102B700064490978884297DD00206449C8700520BF
:102B80005F49A1F88C00002301221946184608F07D
:102B9000A8FD01205D498871C0E25E4800780528E3
:102BA0009FD15748B0F85A0056490978884206DD47
:102BB0005348B0F858005349097888420ADC01208C
:102BC0005249C87002204E49A1F88C00052001F03E
:102BD00009FEA3E24A48B0F85A004A4909788842F7
:102BE0009EDD4748B0F8580046490978884297DD8D
:102BF00000204649C87005204149A1F88C000023F7
:102C000001221946184608F06CFD01203F498871E1
:102C100084E24148807A00289FD032E03848B0F8FA
:102C20004E0039490978884209DB3548B0F8500030
:102C300035490978884202DB3848006830B90120FC
:102C40003249C870052001F0CDFD14E02C48B0F8E1
:102C50004E002D49097888420DDD2948B0F8500012
:102C600029490978884206DD2C480068012802D1EC
:102C700000202649C870052300221146104608F09E
:102C800030FD274800780028C8D034E01C48B0F850
:102C900052001D49097888420ADB1948B0F85400EF
:102CA00019490978884203DB1C48001F006830B9C5
:102CB00001201649C870052001F094FD15E0104868
:102CC000B0F852001049097888420EDD0C48B0F87F
:102CD00054000D490978884207DD1048001F00683C
:102CE000012802D100200949C8700523002211469D
:102CF000104608F0F6FC0A4840780028C6D03DE0AF
:102D0000BA9B002056000020570000201E9D002086
:102D100058000020490000203A9B002024824242B3
:102D200028000020FE48B0F85600FE490978884285
:102D300006DBFB48B0F85800FA490978884206DA01
:102D40000120F949C870052001F04CFD10E0F4485D
:102D5000B0F85600F3490978884209DDF048B0F828
:102D60005800F0490978884202DD0020EE49C87019
:102D7000052300221146104608F0B3FCEB4880788A
:102D80000028CFD02BE0E648B0F85A00E549097892
:102D9000884206DBE248B0F85C00E24909788842E4
:102DA00006DA0120E049C870052001F01BFD10E0A3
:102DB000DB48B0F85A00DB490978884209DDD84879
:102DC000B0F85C00D7490978884202DD0020D64976
:102DD000C870052300221146104608F082FCD34833
:102DE000C0780028CFD02BE0CD48B0F85600CD49B0
:102DF0000978884206DBCA48B0F85C00C9490978FE
:102E0000884206DA0120C849C870052001F0EAFCB2
:102E100010E0C348B0F85C00C2490978884209DD77
:102E2000BF48B0F85600BF490978884202DD00204B
:102E3000BD49C870052300221146104608F051FC18
:102E4000BA48007A0028CFD02BE0B548B0F85A0035
:102E5000B4490978884206DBB148B0F85800B14956
:102E60000978884206DA0120AF49C870052001F0D0
:102E7000B9FC10E0AA48B0F85A00AA49097888427B
:102E800009DDA748B0F85800A6490978884202DD54
:102E90000020A549C870052300221146104608F0FD
:102EA00020FCA248407A0028CFD047E09C48B0F8E8
:102EB0004E009C490978884214DB9948B0F85000CC
:102EC0009849097888420DDB9548B0F85600954935
:102ED0000978884206DB9248B0F858009149097891
:102EE000884206DA01209049C870052001F07AFC7A
:102EF0001EE08B48B0F84E008A490978884217DDF9
:102F00008748B0F8500087490978884210DD844826
:102F1000B0F8560083490978884209DD8048B0F846
:102F2000580080490978884202DD00207E49C87037
:102F3000052300221146104608F0D3FB7B48007998
:102F40000028B3D047E07648B0F8520075490978B8
:102F5000884214DB7248B0F85400724909788842FC
:102F60000DDB6F48B0F856006E490978884206DBE1
:102F70006B48B0F858006B490978884206DA01209E
:102F80006949C870052001F02DFC1EE06448B0F8C6
:102F9000520064490978884217DD6148B0F854004E
:102FA00060490978884210DD5D48B0F856005D49F7
:102FB0000978884209DD5A48B0F85800594909781B
:102FC000884202DD00205849C870052300221146BE
:102FD000104608F086FB554840790028B3D047E0FA
:102FE0004F48B0F84E004F490978884214DB4C48EE
:102FF000B0F850004B49097888420DDB4848B0F8DA
:103000005A0048490978884206DB4548B0F85C0018
:1030100044490978884206DA01204349C8700520EE
:1030200001F0E0FB1EE03E48B0F84E003D49097853
:10303000884217DD3A48B0F850003A49097888428A
:1030400010DD3748B0F85A0036490978884209DD62
:103050003348B0F85C0033490978884202DD00202B
:103060003149C870052300221146104608F039FB8B
:103070002E4880790028B3D047E02948B0F85200A4
:1030800028490978884214DB2548B0F854002549BE
:10309000097888420DDB2248B0F85A0021490978A6
:1030A000884206DB1E48B0F85C001E490978884259
:1030B00006DA01201C49C870052001F093FB1EE0D0
:1030C0001748B0F8520017490978884217DD1448AC
:1030D000B0F8540013490978884210DD1048B0F860
:1030E0005A0010490978884209DD0D48B0F85C00A3
:1030F0000C490978884202DD00200B49C87005237D
:1031000000221146104608F0ECFA0848C07900E0A9
:1031100013E00028B1D000200349C870052307E060
:10312000BA9B0020570000201E9D00202800002090
:1031300000221146104608F0D4FAFFF7EABB09E076
:103140007D21012007F058FBC823002211461046BC
:1031500008F0C7FAF4E700240CE0601C84B2282CC5
:1031600002D1002400F046FF05230022114610463C
:1031700008F0B7FAF1E700001CB53CE01E48C07A41
:1031800038B11EA021A3022200210090084601F0C0
:10319000B5FC1948C07A38B91DA01CA30222002131
:1031A0000090084601F0AAFC134800781DA120A356
:1031B0000222CDE900101146002001F09FFC0E48CC
:1031C00040881DA11AA30222CDE90010042100208D
:1031D00001F094FC0848007B19A11CA30222CDE950
:1031E00000100621002001F089FC0A23002211466C
:1031F000104608F076FAC1E7EC9A00204D69616E3E
:1032000042616E456E61626C65212000257300008D
:1032100059616F4B6F6E675169456E61626C6521D4
:1032200000000000446F6E675A756F3A000000009E
:103230002573256420200000537544753A00000072
:103240004B61694775616E3A00000000257325786F
:103250000000000010B50749074800F063F938B1D5
:103260000449054800F088F80021034800F09EF862
:1032700010BD0000008000185860024010B50A49D7
:103280000A4800F04FF968B1012240F2266108486F
:1032900007F0C1FE0449054800F06EF8002103481C
:1032A00000F084F810BD0000208000207060024013
:1032B000004C004010B50749074800F033F938B119
:1032C0000449054800F058F80021034800F06EF862
:1032D00010BD000000802020A06002402DE9F041D8
:1032E00000261549154800F01DF910B300241AE016
:1032F000002509E005EB4500114901EB400030F8DD
:1033000014000644681CC5B21E2DF3DB1E2096FB7C
:10331000F0F7384608F034FE0A4A02EBC40203C252
:103320000026601CC4B2032CE2DB0349034800F012
:1033300023F8BDE8F08100002080001010640240F6
:10334000887300204074002010B50849084800F038
:10335000E9F850B10549064800F00EF8002104488C
:1033600000F024F801200349087010BD00800028F7
:10337000B86402408C0000200246094B9A4201D2F8
:10338000084801E00648103801F000531BB1064B15
:103390000B40C36002E0044B0B40836070470000A9
:1033A00010640240006002407D0F7D0F21B1026871
:1033B00042F00102026003E0026822F001020260B2
:1033C00070470000016821F00101016000210160E7
:1033D00041608160C1600161212141614A498842A7
:1033E00004D13D21484A103A91608CE04649183199
:1033F000884205D14FF47461434A103A916082E0EB
:1034000041493031884205D14FF474113E4A103A97
:10341000916078E03C494831884205D14FF07461B1
:10342000394A103A91606EE037496031884204D1E0
:103430003649354A103AD16065E0334978318842DF
:1034400004D13349304A103AD1605CE02E499031C2
:10345000884204D12F492C4A103AD16053E02A49BE
:10346000A831884205D14FF03D51274A103AD1602A
:1034700049E02949884204D13D21274A083A116090
:1034800041E025491831884205D14FF47461224A40
:10349000083A116037E020493031884205D14FF4B5
:1034A00074111D4A083A11602DE01B4948318842C9
:1034B00005D14FF07461184A083A116023E01649AB
:1034C0006031884204D11149134A121F11601AE079
:1034D00011497831884204D10D490F4A121F1160F9
:1034E00011E00D499031884204D10A490A4A121F5D
:1034F000116008E00849A831884204D14FF03D51DD
:10350000054A121F11607047106002403D00002004
:10351000400F002000003D20106402400146486832
:1035200080B2704770B50246002000240025124E7C
:10353000B24201D2114B01E00F4B103B104E0E4036
:1035400036B11E2606EAD124166806EA040502E012
:10355000566906F0800501F000560EB15C6800E087
:103560001C68084E344004EA010616B10DB1012072
:1035700000E0002070BD00001064024000600240C6
:103580003C0F3C0F7D0F7D0F10B501F080034BB158
:1035900022B1436943F08003436103E0436923F0B0
:1035A0008003436180290BD02AB1036801F01E0417
:1035B0002343036004E0036801F01E04A343036097
:1035C00010BD000010B500220268134B1A40CC68F1
:1035D0000B6823434C6923438C692343CC69234301
:1035E0000C6A23434C6A23438C6A23434C6B23436A
:1035F0008C6B23431A430260426922F00702D1E92F
:103600000B3423431A4342610B6943604B68836068
:103610008B68C36010BD00003F801CF041607047A4
:1036200000B591B00121480505F0B2FC00213A48EF
:10363000FFF7BCFE3848FFF7C5FE4FF00060019071
:10364000364802903648039040200490FA200590B6
:10365000002006904FF480600790002008900990A9
:103660004FF480700A9000200C9003200D9000040D
:103670000B9000200E900F9001A92748FFF7A2FFA2
:1036800000212548FFF792FE012210212248FFF772
:103690007BFF002120481838FFF788FE1E481838A5
:1036A000FFF790FE4FF0006001901C4802901D480B
:1036B000039000200490FA200590002006904FF41B
:1036C000806007900020089009904FF480700A9065
:1036D00000200C9003200D9000040B9000200E9011
:1036E0000F9001A90C481838FFF76CFF01210A4818
:1036F0001838FFF75BFE11208DF8400002208DF88E
:10370000410005208DF8420001208DF8430010A8EB
:1037100001F032F911B000BDA06002400444004045
:10372000467700204C76002000B591B00121480575
:1037300005F02EFC00213A48FFF738FE3848FFF725
:1037400041FE4FF0006001903648029036480390E9
:103750004020049082200590002006904FF4806065
:1037600007900020089009904FF480700A90002084
:103770000C9003200D9000040B9000200E900F90F1
:1037800001A92748FFF71EFF00212548FFF70EFE7D
:10379000012210212248FFF7F7FE0021204830388F
:1037A000FFF704FE1E483038FFF70CFE4FF00060B4
:1037B00001901C4802901D48039000200490822034
:1037C0000590002006904FF480600790002008903C
:1037D00009904FF480700A9000200C9003200D9007
:1037E00000040B9000200E900F9001A90C48303877
:1037F000FFF7E8FE01210A483038FFF7D7FD0E2019
:103800008DF8400002208DF8410005208DF842001F
:1038100001208DF8430010A801F0AEF811B000BDF2
:103820005860024004480040B67A0020347A0020F4
:1038300000B591B00121480505F0AAFB00213A48E6
:10384000FFF7B4FD3848FFF7BDFD4FF00060019071
:10385000364802903648039040200490FA200590A4
:10386000002006904FF48060079000200890099097
:103870004FF480700A9000200C9003200D900004FB
:103880000B9000200E900F9001A92748FFF79AFE99
:1038900000212548FFF78AFD012210212248FFF769
:1038A00073FE002120483038FFF780FD1E48303875
:1038B000FFF788FD4FF0006001901C4802901D4802
:1038C000039000200490FA200590002006904FF409
:1038D000806007900020089009904FF480700A9053
:1038E00000200C9003200D9000040B9000200E90FF
:1038F0000F9001A90C483038FFF764FE01210A48F7
:103900003038FFF753FD0F208DF8400002208DF86E
:10391000410004208DF8420001208DF8430010A8DA
:1039200001F02AF811B000BD70600240044C004064
:10393000587400205275002000B591B0012188050F
:1039400005F026FB00212048FFF730FD1E48FFF759
:1039500039FD002001901D4802901D480390002071
:1039600004905A200590002006904FF48060079044
:10397000400008900990C0100A9000200C9003208D
:103980000D9000040B9000200E900F9001A90E489E
:10399000FFF718FE012210210B48FFF7F5FD01216A
:1039A0000948FFF703FD38208DF8400002208DF80C
:1039B000410003208DF8420001208DF8430010A83B
:1039C00000F0DAFF11B000BD106402404C2001404D
:1039D000887300207047000070B54548B0F86E004D
:1039E00000287CDD4248B0F86E00002827DD404802
:1039F000B0F86E003E49B1F8701088421FD03C48C4
:103A0000B0F8704016E0002510E004EB440039499E
:103A100001EB400030F81510601E00EB4000354A05
:103A200002EB400020F81510681C85B2032DECDB7A
:103A3000601C84B22E48B0F86E00A042E3DC2C4833
:103A4000B0F86E00401E2A49A1F86E000846B0F892
:103A50006E0018B90020A1F870000FE02448B0F8FB
:103A60006E00401C2249B1F87010884206D12048EF
:103A7000B0F87000401E1E49A1F87000002415E047
:103A80001B4AB2F86C20521E1B4B4FF4967606FB75
:103A90000232032303FB042104EB4402154B03EB26
:103AA0004200032207F044FD601C84B21048B0F8C5
:103AB0006E00A042E4DC0E48B0F86E10B0F86C0066
:103AC000401E0E4A22F81010094AB2F86C200C4B26
:103AD000D118074AB2F86C20521E084B00E006E0ED
:103AE00003EB4200012207F023FD07F045FB70BD08
:103AF000BA9B00208EB500208E460F00A6B1002094
:103B000099440F00F0B50A4600210023002400BFAD
:103B10003DE0012505FA01F3156805EA03049C421E
:103B200034D105684F000326BE40B54305601579C2
:103B30004E00B5400668354305601579012D02D069
:103B40001579022D16D185684F000326BE40B54376
:103B5000856055794E00B540866835438560456877
:103B600001268E40B5434560456896798E40B6B2D1
:103B700035434560C5684F000326BE40B543C56068
:103B8000D5794E00B540C6683543C560491C10293B
:103B9000BFD3F0BDF0B5002300244D07ED0E02FAAF
:103BA00005F3CE1000F1200555F826504E07F70E0C
:103BB0000F26BE40B543CF1000F1200646F827502F
:103BC000CE1000F1200555F8265045EA0304CE102A
:103BD00000F1200545F82640F0BD41837047018380
:103BE0007047000070B50024344AB2F86C20344BA2
:103BF000D118324AB2F86C20521E324B03EB42000D
:103C0000012207F00BFC2D48B0F86C00401E2D4936
:103C100031F810002949A1F86E000120A1F87000C8
:103C20000846B0F86E00642804DD0020A1F86E009C
:103C3000A1F87000002415E0204AB2F86C20521E52
:103C4000214B4FF4967505FB0232032303FB04213D
:103C500004EB44021D4B03EB4200032207F0DEFBA2
:103C6000601C84B21548B0F86E00A042E4DC134832
:103C7000B0F87000401E00EB4000144931F810000D
:103C80000E49A1F872000846B0F87000401E00EB23
:103C900040000E4901EB400040880849A1F874003B
:103CA0000846B0F87000401E00EB4000074901EBE9
:103CB000400080880149A1F8760070BDBA9B0020C1
:103CC00099440F00A6B100208E460F008EB500204B
:103CD00070B5044600252F4AA118621E2E4B03EB37
:103CE0004200012207F09AFB601E2B4931F81000B8
:103CF0002A49A1F86E000120A1F870000846B0F82A
:103D00006E00642804DD0020A1F86E00A1F87000A8
:103D1000002512E0621E224B4FF4967606FB02321B
:103D2000032303FB052105EB45021E4B03EB420079
:103D3000032207F073FB681C85B21848B0F86E00C8
:103D4000A842E7DC1548B0F87000401E00EB4000C8
:103D5000144931F810001149A1F872000846B0F872
:103D60007000401E00EB40000E4901EB400040880F
:103D70000A49A1F874000846B0F87000401E00EB34
:103D80004000084901EB400080880449A1F8760012
:103D900070BD000099440F00A6B10020BA9B00201E
:103DA0008E460F008EB5002010B50446064AA118B5
:103DB000621E064B03EB4200012207F02FFB601E40
:103DC000024931F8100010BD99440F00A6B100203F
:103DD00070B50546284600F025F80F49C884002430
:103DE00012E06A1E4FF4FA635A4302F25922142376
:103DF00003FB042104EB8402084B03EBC2001422F2
:103E000007F00CFB601C84B2681E054931F81000F5
:103E1000A042E6DC70BD0000BA9B0020DEA10020BD
:103E2000F69D002010B5044604F16401621E0B4BA0
:103E300003EB4200012207F0F1FA601E074931F856
:103E40001000642804DD0021601E044A22F81010CE
:103E5000601E024931F8100010BD0000F69D0020E0
:103E600000BFFEE710B50D48B0F88400022805D168
:103E7000FFF7B8FE0A4800880849C8860749C88E77
:103E8000FFF7D0FF0549C88400204880C88EFFF79F
:103E90009FFF044840890149888710BDBA9B0020D4
:103EA0008EB50020DEA1002000B501200549086084
:103EB0000549C1F8980207F085FC00200149091F57
:103EC000086000BD9C0241420000414200B5012053
:103ED0000649086000200649C1F89802012007F051
:103EE00071FC01200149091F086000BD9C0241428C
:103EF000000041427CB504464020009001208DF82E
:103F0000040000208DF8060003208DF80500012034
:103F10008DF8070069461848FFF7F4FD002017499F
:103F20000860012007F04EFC00251EE004F0800030
:103F300020B101201149091F086003E000200F494A
:103F4000091F08606006040E00200C49086001206B
:103F500007F038FC01200A49C1F89C0207F032FC46
:103F6000002006490860681CC5B2082DDEDB012070
:103F700007F028FC7CBD0000000802409C02414282
:103F8000000041421CB501244020009000208DF823
:103F9000040003208DF8050001208DF80700694614
:103FA0000D48FFF7AFFD01200C49086007F00AFC3F
:103FB00000200B49C1F89C0201E0601CC4B2074814
:103FC0008438006808B1642CF7DD012007F0FAFBA3
:103FD0000020024908601CBD000802409C024142CA
:103FE000000041424CF6CC40014908607047000097
:103FF0000030004010B500F013F810BD70B5054654
:104000000C4645F2555000F01FF8284600F010F815
:10401000204600F013F800F003F8FFF7E3FF70BD4F
:104020004AF6AA20014908607047000000300040AD
:104030000149486070470000003000400149886035
:1040400070470000003000400149086070470000E0
:104050000030004070B53C48B0F86E10B0F86C000D
:10406000401E3A4A22F81010374AB2F86C20384BFA
:10407000D118354AB2F86C20521E344B03EB420083
:10408000012207F055FA3048B0F86E4017E00025DD
:1040900011E0A01E00EB40002E4901EB400030F87B
:1040A0001510601E00EB40002A4A02EB400020F889
:1040B0001510681C85B2032DEBDB601E84B222480C
:1040C000B0F87000A042E2DD1F48B0F87210B0F8FE
:1040D0007000401E00EB40001E4A22F810101A48E3
:1040E000B0F87410B0F87000401E00EB400002EB16
:1040F000400041801448B0F87610B0F87000401EBF
:1041000000EB400002EB40008180002415E00E4AE5
:10411000B2F86C20521E104B4FF4967606FB02321A
:10412000032303FB042104EB44020A4B03EB42008C
:10413000032207F0FDF9601C84B20348B0F86E005A
:10414000A042E4DC70BD0000BA9B0020A6B10020B4
:1041500099440F008EB500208E460F001CB501213A
:10416000202004F015FF0121022004F011FF01219D
:10417000402004F00DFF0121084604F009FF012151
:10418000042004F005FF0121082004F001FF0121B3
:10419000102004F0FDFE2020009000208DF8040087
:1041A00003208DF8050001208DF8070069467D4841
:1041B000FFF7A8FC48F21040009000208DF80400A2
:1041C00003208DF8050001208DF807006946764828
:1041D000FFF798FC44F2F070009000208DF8040086
:1041E00003208DF8050001208DF8070069466F480F
:1041F000FFF788FC48F20810009001208DF80400B9
:1042000000208DF8060003208DF8050001208DF8B0
:10421000070069466348FFF775FC002064490860A1
:1042200001206449C1F8A00261493031086040F2C0
:10423000F970009001208DF8040000208DF8060030
:1042400003208DF8050001208DF8070069465A48C3
:10425000FFF758FC01205949086058490C310860A3
:10426000091D0860091D0860091D0860091D086016
:10427000091D0860091D08605149C1F8A802F02015
:10428000009001208DF8040000208DF80600032026
:104290008DF8050001208DF8070069464948FFF7B1
:1042A00031FC0120484908604849C1F894024FF2A6
:1042B0001B00009001208DF8040000208DF80600FE
:1042C00003208DF8050001208DF80700694640485D
:1042D000FFF718FC01203F490860091D08603D49AF
:1042E0000C310860091D08603A4930310860091D29
:1042F0000860091D08603849C1F8BC02032000901D
:1043000001208DF8040000208DF8060003208DF8B0
:10431000050001208DF8070069462348FFF7F2FBEE
:1043200001202E4908602E49C1F884020F20009018
:1043300001208DF8040000208DF8060003208DF880
:10434000050001208DF8070069461848FFF7DAFBE1
:10435000012024490860091D0860091D08602249E0
:10436000C1F88C024FF46C40009001208DF80400DD
:1043700000208DF8060003208DF8050001208DF83F
:10438000070069461948FFF7BDFB0120184908607E
:10439000174914390860091D08601649C1F8B402AC
:1043A0001CBD00000000024000100240001402404A
:1043B0008C024042000040420004024080824042A1
:1043C0000080404200080240900241420000414209
:1043D000000C024080824142008041428002424201
:1043E0000000424280824242008042420018024065
:1043F000BC0243420000434200BFB6E1DB484079C3
:1044000001282FD1D948C0780028FAD1D84800789F
:1044100048BB0120FEF7C8F91DE0D648B0F864108B
:10442000012000F06DFAD348B0F86410022000F0CB
:1044300067FAD048B0F86410032000F061FACD4864
:10444000B0F86410042000F05BFA0A230022114641
:10445000104607F046F9C64800780028DDD0052050
:1044600000F0C0F97BE1C248407848BB0220FEF76B
:104470009BF91DE0BF48B0F86410012000F006FA77
:10448000BC48B0F86410022000F000FAB948B0F857
:104490006410032000F0FAF9B648B0F86410042064
:1044A00000F0F4F90A2300221146104607F019F92A
:1044B000AF4840780028DDD0052000F093F94EE1A8
:1044C000AB48807848BB0320FEF76EF91DE0A94891
:1044D000B0F86410012000F0D9F9A648B0F86410D3
:1044E000022000F00DFAA348B0F86410032000F099
:1044F00007FAA048B0F86410042000F0C7F90A23B6
:1045000000221146104607F0ECF899488078002800
:10451000DDD0052000F066F921E19548C07848BB60
:104520000420FEF741F91DE09248B0F86410012024
:1045300000F0E6F98F48B0F86410022000F0A6F908
:104540008C48B0F86410032000F0A0F98948B0F856
:104550006410042000F0D4F90A230022114610460A
:1045600007F0BFF88248C0780028DDD0052000F0B1
:1045700039F9F4E07E48007918BB0520FEF714F9FC
:1045800017E0012000F02EF97A48B0F864100220FC
:1045900000F0B6F97748B0F86410032000F0B0F9E5
:1045A000042000F01FF90A2300221146104607F0EC
:1045B00098F86F4800790028E3D0052000F012F940
:1045C000CDE06B48407918BB0620FEF7EDF817E008
:1045D0006848B0F86410012000F058F9022000F09B
:1045E00001F9032000F0FEF86248B0F864100420DE
:1045F00000F04CF90A2300221146104607F071F82A
:104600005B4840790028E3D0052000F0EBF8A6E0F5
:104610005748807918BB0720FEF7C6F817E05548C1
:10462000B0F86410012000F06BF9022000F0DAF815
:10463000032000F0D7F84F48B0F86410042000F0D1
:104640005FF90A2300221146104607F04AF848484D
:1046500080790028E3D0052000F0C4F87FE04448CA
:10466000C07918BB0820FEF79FF817E0012000F082
:10467000B9F84048B0F86410022000F007F93D484E
:10468000B0F86410032000F001F9042000F0AAF84B
:104690000A2300221146104607F023F83448C07957
:1046A0000028E3D0052000F09DF858E03048007A5B
:1046B00048BB0920FEF778F81DE02E48B0F86410DA
:1046C000012000F0E3F82B48B0F86410022000F05D
:1046D00017F92848B0F86410032000F0D7F82548EF
:1046E000B0F86410042000F00BF90A2300221146F0
:1046F000104606F0F6FF1E48007A0028DDD005209F
:1047000000F070F82BE01A48407A40BB0A20FEF710
:104710004BF81DE01748B0F86410012000F0F0F8E5
:104720001448B0F86410022000F0B0F81148B0F856
:104730006410032000F0E4F80E48B0F86410042080
:1047400000F0A4F80A2300221146104606F0C9FF23
:104750000748407A0028DDD0052000F043F80A23FE
:1047600000221146104606F0BCFF47E61E9D0020C1
:1047700028000020BA9B002000BFFEE730B50546A8
:104780000C4622460021284600F001F830BD2DE9F4
:10479000F04105460B4694460027002402E03F0204
:1047A0001F43641C042CFAD3604605F00306294617
:1047B00046B1344603E001F8013B401E641C08B1D9
:1047C000042CF8D30A4601E080C2001F0428FBD263
:1047D000114602E001F8013B401E0028FAD1BDE875
:1047E000F081000010B50446012C07D100202349B8
:1047F00008600021224805F0B5FF3EE0022C08D1F8
:1048000000201E49091F086000211D4805F0ACFF6B
:1048100033E0032C08D1002018490C39086000212E
:10482000174805F0A3FF28E0042C08D10020134905
:10483000103908600021124805F09AFF1DE00020A1
:10484000104908700D4908600F49C1F88C020B49E6
:104850000C3908600C49C1F880020021084805F0B5
:1048600081FF0021064805F07FFF0021044805F084
:104870007DFF0021024805F07BFF10BD9082414280
:1048800000080040480000200080414270B5054605
:104890000C46012D06D0022D0DD0032D15D0042D70
:1048A00027D11CE0012014490860C4F57A7113482F
:1048B00005F058FF1EE001200F49091F0860C4F5EC
:1048C0007A710E4805F050FF14E001200A490C39B6
:1048D0000860C4F57A71094805F048FF0AE0012034
:1048E000054910390860C4F57A71044805F040FFA5
:1048F00000E000BF00BF70BD908241420008004050
:1049000070B505460C46012D06D0022D0DD0032DA5
:1049100015D0042D27D11CE0012014490860C4F5EE
:104920007A71134805F01EFF1EE001200F49091F90
:104930000860C4F57A710E4805F016FF14E00120F6
:104940000A490C390860C4F57A71094805F00EFF70
:104950000AE00120054910390860C4F57A7104485D
:1049600005F006FF00E000BF00BF70BD908241422D
:10497000000800407047000070B5002100230F229E
:10498000C4781CB3174C246804F4E064C4F5E064F4
:10499000C4F30721C1F10404E3B20A4144789C4006
:1049A000E1B28478144021430C07210E0E4C0578A7
:1049B0006155047804F01F050124AC4005786D11A1
:1049C000AD0005F1E025C5F8004109E0047804F0E8
:1049D0001F050124AC40054D0678761145F82640A8
:1049E00070BD00000CED00E000E400E080E100E0BC
:1049F00002490143024A1160704700000000FA05B5
:104A00000CED00E010B5002000F001F810BD70B50D
:104A10000646002415E004F1B001C8B206F014FE09
:104A2000002006F011FE102006F00EFE002504E026
:104A3000304606F01FFE681CC5B2802DF8DB601CF6
:104A4000C4B2082CE7DB70BD10B5642006F092FEFE
:104A5000AE2006F0F9FD202006F0F6FD102006F04D
:104A6000F3FDB02006F0F0FDC82006F0EDFD0020BB
:104A700006F0EAFD102006F0E7FD402006F0E4FD18
:104A8000812006F0E1FDFF2006F0DEFDA12006F00A
:104A9000DBFDA62006F0D8FDA82006F0D5FD3F20BE
:104AA00006F0D2FDA42006F0CFFDD32006F0CCFD09
:104AB000002006F0C9FDD52006F0C6FDF02006F066
:104AC000C3FDD92006F0C0FD222006F0BDFDDA208E
:104AD00006F0BAFD122006F0B7FDDB2006F0B4FDAB
:104AE000202006F0B1FD8D2006F0AEFD142006F06A
:104AF000ABFDAF2006F0A8FD10BD00000FB4F8B567
:104B000005460E4614460AA800900848009A0999DE
:104B1000FBF73CFC002000902346044A314628461F
:104B200000F01AF8F8BC5DF814FB0000E6B70020AE
:104B300070B504460D4605F1B001C8B206F084FD1B
:104B4000102141EA141006F07FFD04F00F0141F03E
:104B5000010006F079FD70BD2DE9F0470646894653
:104B600017469A464FF0000800240025BAF1010FBD
:104B700003D0BAF1020F5ED125E020E0785D203845
:104B800000F0FF087E2E04DD002609F1010000F090
:104B9000FF0949463046FFF7CBFF002409E008EB48
:104BA0004801264A02EB4101085D06F063FD601CE6
:104BB000C4B2062CF3DBB01DC6B2681CC5B2785D6A
:104BC0000028DBD137E032E0785D203800F0FF08C4
:104BD000782E04DD002609F1010000F0FF094946A6
:104BE0003046FFF7A5FF002407E004EB0811144A44
:104BF000505C06F03FFD601CC4B2082CF5DB09F1E7
:104C00000100C1B23046FFF793FF002408E004EB37
:104C1000081108310A4A505C06F02CFD601CC4B231
:104C2000082CF4DB06F10800C6B2681CC5B2785D3A
:104C30000028C9D100BF00BFBDE8F087BCBF000895
:104C4000E4C1000815481648164817481748184880
:104C50001848194819481A481A481B481B481C4844
:104C60001C481D481D481E481E481F481F48204814
:104C700020482148214822482248234823482448E4
:104C800024482548254826482648274827482848B4
:104C900028482948294800BF7047000074C8000808
:104CA000D4C70008D8C70008DCC70008E0C7000860
:104CB000E4C70008E8C70008ECC70008F0C7000810
:104CC000F4C70008F8C70008FCC7000800C80008BF
:104CD00004C8000808C800080CC8000810C800086C
:104CE00014C8000818C800081CC8000820C800081C
:104CF00024C8000828C800082CC8000830C80008CC
:104D000034C8000838C800083CC8000840C800087B
:104D100044C8000848C800084CC8000850C800082B
:104D200054C8000858C800085CC8000860C80008DB
:104D300064C8000868C800086CC8000870C800088B
:104D400010B50348006810B101480068804710BDE5
:104D5000D400002070B5044600F0C2F80020484995
:104D6000087048490870484908704849086048492F
:104D7000086048490870484908704849087048491F
:104D80000860484908604849086048490870484830
:104D900000680A21B0FBF1F0464908604648006807
:104DA00058B14648056845B14348066803E0761E99
:104DB000002028602D1D002EF9D1002040490860F8
:104DC000404908604049086040490860404908601F
:104DD00040490860404908604049087002F0ECF919
:104DE00002F0CCFA204601F07BFB208800B170BDB8
:104DF000204601F05DFF208800B1F8E7204601F071
:104E00007FFF208800B1F2E7204602F04BF82088AF
:104E100000B1ECE7204602F0FFF9208800B1E6E798
:104E2000204602F01FFC208800B1E0E7204602F097
:104E300041FF208800B1DAE7204601F0A5FE208876
:104E400000B1D4E7204601F0BDFC208800B1CEE7D8
:104E5000204603F09FFE208800B1C8E7204602F0FC
:104E60006DFE208800B1C2E7204603F0EFFE2088E7
:104E700000B1BCE701F05CFAFFF7E4FE00BFB6E763
:104E8000E8000020E9000020300100208801002017
:104E90008C010020160100201701002018010020BD
:104EA00024010020280100202C01002038010020CE
:104EB00034C800083401002004C8000800C80008F5
:104EC000C8000020CC000020D0000020D40000202A
:104ED000D8000020DC000020E00000206601002057
:104EE000064800680649096800EB8100054908602A
:104EF0000846006820F007000860704700C80008F6
:104F000004C800089001002008480078012800D05B
:104F1000704707480078FA2800DBF9E70448007872
:104F2000401C0349087000BFF2E70000E9000020C0
:104F3000E800002010B500242D480078012800D09A
:104F400010BD00BFFBF70AFA044600BF29480078ED
:104F500028B900BF2046FBF705FA00BFF0E7254857
:104F60000078401E2349087008460078002805DDB7
:104F700000BF2046FBF7F6F900BFE1E71E480078C6
:104F8000002805DD00BF2046FBF7ECF900BFD7E79E
:104F900002F0FEF8194908700846007800EB40005E
:104FA000174951F82000174908600846006816495B
:104FB0000968884205D100BF2046FBF7D3F900BF3E
:104FC000BEE710480068D0F89000401C0D49096801
:104FD000C1F890000D480068401C0C490860FCF7BF
:104FE000A1FC00BF2046FBF7BDF900BF00BFA7E74B
:104FF000E9000020E8000020300100201701002017
:1050000074CE00208C010020880100205C0100206B
:1050100010B500241F480078002800DD10BD1E4890
:105020000078002800DDF9E700BFFBF797F9044698
:1050300000BF02F0ADF8194908700846007800EB8F
:105040004000174951F820001649086008460068DA
:1050500015490968884205D100BF2046FBF782F94F
:1050600000BFDBE70F480068D0F89000401C0D49F6
:105070000968C1F890000D480068401C0B490860A1
:10508000FCF74BFC00BF2046FBF76CF900BF00BFEC
:10509000C4E70000E80000203001002017010020D4
:1050A00074CE00208C010020880100205C010020CB
:1050B00070B50446002518480078002803DD46F640
:1050C0006250208070BD15480078012803D045F655
:1050D00089602080F6E712480078FA2803DB45F261
:1050E00009202080EEE700BF00BFFBF737F9054637
:1050F00000BF00BF0A480078401C0949087002F050
:105100001DFA00BF00BF2846FBF72CF900BF00BF07
:105110000020208000BFD5E7E8000020E900002043
:10512000300100202DE9F04105460C4616460027C7
:1051300000BF00BFFBF712F9074600BF00BF012DFB
:1051400003D000200D49087002E001200B490870CF
:1051500014B10B48046006E00A4800680A21B0FB5D
:10516000F1F00749086000BF00BF3846FBF7FAF8C6
:1051700000BF00BF00203080BDE8F0813801002072
:105180003401002034C8000870B5044600252048CA
:105190000078002803DD46F66550208070BD1D486C
:1051A0000078012803D045F689602080F6E71A4888
:1051B000007818B946F664502080EFE700BF00BFC2
:1051C000FBF7CCF8054600BF00BF13480078401E2F
:1051D000114908700846007800280ADD00BF00BFAA
:1051E0002846FBF7BFF800BF00BF46F6635020809B
:1051F000D4E702F0B1F900BF00BF2846FBF7B2F8D0
:1052000000BF00BFFFF704FF0020208000BFC5E7FC
:10521000E8000020E90000203001002010B504461D
:1052200012480078E8B901F0B3FF11490870084648
:105230000078104908700E48007800EB40000E49D5
:1052400051F820000D490860084600680C490860C4
:10525000012006490870FCF74FFB43F69920208097
:1052600002E045F68A60208010BD0000E9000020C1
:10527000170100201601002074CE00208C010020B0
:10528000880100202DE9F04107464FF0000800BFDB
:1052900000BFFBF763F8804600BF00BF00203D4918
:1052A00008603D4908803D4908803D4908603D4906
:1052B00008603D4908603D4908603D49088100BFDC
:1052C00000BF4046FBF74EF800BF00BF00BF00BF65
:1052D000FBF744F8804600BF00BF3648046800BFB3
:1052E00000BF4046FBF73EF800BF00BF21E000BF13
:1052F00000BFFBF733F8804600BF00BF00207834C2
:10530000E06320602063A061A082E0826062A0620E
:10531000FDF726FA2062783C04F164060020B08193
:10532000D4F8BC4000BF00BF4046FBF71BF800BFED
:1053300000BF002CDBD100BF00BFFBF70FF8804699
:1053400000BF00BF1C48056800BF00BF4046FBF718
:1053500009F800BF00BF12E000BF00BFFAF7FEFF70
:10536000804600BF00BF05F120060020B081AD6976
:1053700000BF00BF4046FAF7F5FF00BF00BF002D99
:10538000EAD103F0E3FA03F05DFD00203880BDE8C8
:10539000F0810000FC000020F60000204601002003
:1053A000580100206C010020780100202801002015
:1053B00068CE0020600100201C010020F8B50446E2
:1053C00000266946324800F08FFDBDF8000018B194
:1053D000BDF800002080F8BD6A460021022000F0E0
:1053E000F7FDBDF8000018B1BDF800002080F2E71D
:1053F00000BF00BFFAF7B2FF064600BF00BF0020A3
:105400002449086000BF00BF3046FAF7ABFF00BF79
:1054100000BF00252048006820490968884205D956
:105420001D4800681D490968B0FBF1F525B91A4807
:1054300000680A21B0FBF1F56A460021284600F019
:10544000C7FD6946124800F063FABDF8000018B1C4
:10545000BDF800002080BEE700BF00BFFAF77EFF66
:10546000064600BF00BF00200D49086009480068DB
:105470000C49086001200C49087000BF00BF30468D
:10548000FAF770FF00BF00BF0020208000BFA2E736
:10549000FCD200204801002034C800081CC80008C5
:1054A000580100204C0100205401002010B5034891
:1054B000006810B101480068804710BDD800002086
:1054C0002DE9FF4F87B004469046DDE91BA5DDE9D5
:1054D0001496179F0020039087480078002805DD68
:1054E00047F24A1028800BB0BDE8F08F1CB947F294
:1054F000AD102880F7E7B8F1000F03D147F24F1045
:105500002880F0E71EB946F62F602880EBE77B483D
:105510000068874203D246F630602880E3E7169899
:10552000B84203D346F631602880DCE7B9F1400F7A
:1055300003D346F273202880D5E7B9F1000F06D1D6
:105540006F48844203D046F273202880CBE7B9F13C
:105550003F0F06D16B48844203D046F27320288067
:10556000C1E7204602F0B6FB002028800AF00100C7
:1055700090B10AF0020078B105960020069008E08C
:105580000021059801600598001D05900698401CB3
:1055900006900698B842F3D3169806EB8000049064
:1055A000CDE9007A32464046049B0A9900F06EFB32
:1055B0000590C4F828800A98E0620898206284F870
:1055C0003790059820600498A06019986065199834
:1055D00018B94D480068A06501E01998A0651A98AF
:1055E00060606662A763A4F83CA04FF0000B08E07F
:1055F000002104F17C0040F82B100BF1010000F0B9
:10560000FF0BBBF1000FF3D004F16400189901F017
:10561000C3FB204600F082F800BF00BF00BFFAF7CE
:105620009DFE039000BF00BF38480078401C3749FA
:10563000087000BF00BF0398FAF794FE00BF00BFD8
:1056400000BF94F8370001F0C3FD204601F0DEFEF4
:10565000204602F0F5FA2E480088401C2C490880AC
:105660002C48007801282DD000BF00BF00BFFAF7FA
:1056700075FE039000BF00BF24480078401E2349F8
:10568000087008460078A0B923480088002809DD82
:1056900000BF00BF0398FAF765FE00BF00BF01F02E
:1056A00023FF0DE000BF00BF0398FAF75BFE00BFC9
:1056B00006E000BF00BF0398FAF754FE00BF00BF2A
:1056C00000BF10E700BF00BF00BFFAF747FE03901E
:1056D00000BF00BF0D480078401E0C49087000BF95
:1056E00000BF0398FAF73EFE00BF00BF00BFFFF700
:1056F0008FFC00BFF7E60000E800002030C800087B
:10570000A4CD0020E0CC0020340100203001002096
:1057100064010020E9000020F400002010B50446D8
:105720000348006818B1204601490968884710BD40
:10573000C800002070B504460D4600266748007872
:10574000002803DD47F24E10288070BD6448844273
:1057500003D147F24C102880F7E76248844203D116
:1057600047F24D102880F0E77CB900BF00BFFAF780
:10577000F5FD064600BF00BF5B48046800BF00BFE0
:105780003046FAF7EFFD00BF00BF00BF00BF00BF0B
:10579000FAF7E4FD064600BF00BF54480078401CFD
:1057A0005249087000BF00BF3046FAF7DBFD00BF6A
:1057B00000BF00BF94F8360008282DD2DFE800F0C3
:1057C00004090E10080A0F11204601F05FFE54E094
:1057D00053E000BF204603F09DF84EE000BF00BF3D
:1057E00000BF204603F096F894F83400082810D241
:1057F000DFE800F004070508090A0B0600BF00BF38
:1058000008E000BF00BF00BF00BF204601F011FC50
:1058100000E000BF00BF30E000BF00BF00BFFAF7EC
:105820009DFD064600BF00BF30480078401E2F494E
:10583000087008460078A0B92D480088002809DDC6
:1058400000BF00BF3046FAF78DFD00BF00BF01F07A
:105850004BFE0DE000BF00BF3046FAF783FD00BFEE
:1058600006E000BF00BF3046FAF77CFD00BF00BF76
:1058700000BF46F62D60288067E700BF04F1640092
:1058800001F068FA204600F037F8204602F0F0F9FF
:1058900018480088401E17490880204602F01AFA6E
:1058A000FF2084F8360000BF00BF00BFFAF756FDA6
:1058B000064600BF00BF0D480078401E0B49087027
:1058C00000BF00BF3046FAF74DFD00BF00BF00BF6C
:1058D00000202880FFF79CFB00BF36E7E80000208F
:1058E000E0CC0020A4CD0020880100203001002061
:1058F000F40000206401002010B50446034800684D
:1059000018B1204601490968884710BDCC00002025
:105910007FB504460D46002600BF00BFFAF71EFD06
:10592000064600BF00BF1CB11548006884420AD17A
:1059300000BF00BF3046FAF715FD00BF00BF47F2B9
:10594000571028807FBD00BF00BF3046FAF70AFD20
:1059500000BF00BF0B48007800280BDD002000903E
:105960000190034602462146CDE90205064800F0B3
:1059700061FFE7E72946204602F024FB00BFE1E78C
:1059800088010020E80000205452455310B5044619
:105990000348006818B1204601490968884710BDCE
:1059A000D00000202DE9F04780460E4614461D46E3
:1059B0004FF000097D480078002805DD46F2AE1062
:1059C00028800020BDE8F0871EB1B6F5004F02D157
:1059D00000E000BF04E045F6256028800020F1E7E4
:1059E00000BF0CB10020206000BF00BFFAF7B6FC7A
:1059F000814600BF00BF6E480068406CA8B36C4889
:105A00000068406C401E6A4909684864684800683C
:105A1000476C1CB166480068006C2060FCF7A0FE73
:105A200063490968096C401A61490968C1F8A40012
:105A30005F480068D0F8A8005D490968D1F8A41053
:105A4000884207D25A480068D0F8A400584909682B
:105A5000C1F8A80000BF00BF4846FAF783FC00BFAA
:105A600000BF002028803846ACE7FFE706F400407E
:105A700058B100BF00BF4846FAF774FC00BF00BF32
:105A800046F2B010288000209CE74A4800780028A1
:105A90000BDD00BF00BF4846FAF764FC00BF00BF43
:105AA00046F66350288000208CE700BF414800780C
:105AB000401C4049087000BF00BF4846FAF752FC3E
:105AC00000BF00BF00BF434607220021084601F087
:105AD000F5F900BF00BF00BFFAF740FC814600BFE8
