:020000040800F2
:10000000C8E1002069020008B9310008AD270008E6
:10001000BD2F00087907000895980008000000002F
:10002000000000000000000000000000157D000836
:1000300021230008000000009F030008C18B000876
:10004000830200088302000883020008830200087C
:10005000830200088302000883020008830200086C
:10006000830200088302000883020008830200085C
:100070008302000883020008991A0008C11A0008C8
:1000800083020008F91A00088302000883020008AE
:100090007D0800088302000883020008830200082C
:1000A000458C0008830200088302000883020008D0
:1000B0008D8C0008F98C0008830200088302000878
:1000C00083020008830200088302000883020008FC
:1000D0008302000883020008BD8F00087D9100089C
:1000E00083020008830200088302000883020008DC
:1000F00083020008830200088302000883020008CC
:1001000083020008830200088302000883020008BB
:10011000A98D0008830200088302000883020008FA
:10012000211B0008830200088302000883020008E4
:10013000830200088302000883020008830200088B
:10014000510A0008830200088302000883020008A5
:1001500083020008830200088D1B000869940008D0
:10016000830200088302000883020008830200085B
:10017000830200088302000883020008830200084B
:10018000830200088302000800F002F800F05CF827
:100190000AA090E8000C82448344AAF10107DA45E2
:1001A00001D100F051F8AFF2090EBAE80F0013F0D8
:1001B000010F18BFFB1A43F00103184768A30000A2
:1001C00088A300000A444FF0000C10F8013B13F024
:1001D000070408BF10F8014B1D1108BF10F8015BA0
:1001E000641E05D010F8016B641E01F8016BF9D193
:1001F00013F0080F1EBF10F8014BAD1C0C1B09D1EA
:100200006D1E58BF01F801CBFAD505E014F8016B5B
:1002100001F8016B6D1EF9D59142D6D370470000ED
:100220000023002400250026103A28BF78C1FBD8FF
:10023000520728BF30C148BF0B6070471FB50AF096
:1002400064F81FBD10B510BD00F05FF81146FFF750
:10025000F5FF09F061FD00F07DF803B4FFF7F2FF50
:1002600003BC09F091FC0000094880470948004799
:10027000FEE7FEE7FEE7FEE7FEE7FEE7FEE7FEE756
:10028000FEE7FEE704480549054A064B70470000B3
:10029000DD8B000889010008C8D30020C8E10020D8
:1002A000C8D50020C8D5002072B6704762B6704726
:1002B000EFF3108072B6704780F31088704730BF3C
:1002C000704720BF7047B0FA80F0704790FAA0F0F6
:1002D000B0FA80F0704790FAA0F07047704730B5E0
:1002E00005460B462A4613F8014B12F8010B08B1DC
:1002F000A042F8D01CB1002802D06D1CF1E72846BE
:1003000030BD7047704770477047754600F028F859
:10031000AE4605006946534620F00700854618B0F2
:1003200020B5FFF7AFFFBDE820404FF000064FF0CB
:1003300000074FF000084FF0000B21F00701AC461A
:10034000ACE8C009ACE8C009ACE8C009ACE8C00939
:100350008D4670470446AFF300802046FFF77DFFCF
:100360000048704764D3002022484FF6FF710170A7
:10037000002080F309882048016881F308881F481D
:100380004FF08051016062B6FEE71C484FF080518B
:100390000160704719484FF080510160704772B694
:1003A000EFF3098050B11EF0100F08BF20ED108A46
:1003B000203880E8F00F12490968086000B511483C
:1003C00080475DF804EB104810490A7802700C4829
:1003D0000F490A680260106890E8F00F20301EF0A4
:1003E000100F08BFB0EC108A80F309884EF0040E9D
:1003F00062B6704722ED00E09001002004ED00E0BD
:10040000880100204D45000816010020170100203A
:100410008C01002000B58DB00121042007F0BAF84E
:100420000121080207F0D6F80E200B9003208DF86A
:10043000300000208DF833000BA9204802F008F8A6
:10044000002007900A9009904FF48030089007A888
:1004500000F044F80020019001208DF808008DF88C
:10046000090000200390059003208DF8180001A9D1
:10047000134800F061F8072301220B21104800F017
:1004800085F8072302220C210D4800F07FF807238E
:1004900003220D210A4800F079F80121084800F0F4
:1004A00040F80121064800F031F80121044800F02D
:1004B00009F8034800F0C6F80DB000BD000802407E
:1004C0000020014021B1826842F00102826003E015
:1004D000826822F001028260704700000021084A11
:1004E0001168084A1140D0E900231A4383681A436F
:1004F000C3681A431143044AC2F80413704700004A
:1005000004230140E030FCFF0020014021B182685B
:1005100042F48072826003E0826822F4807282601A
:10052000704721B1826842F40072826003E0826801
:1005300022F400728260704730B50246002000232A
:100540005068104C20400D790C6844EA0524204383
:10055000506090680C4C2040D1E903542C438D68C6
:100560002C434D7944EA450420439060D06A20F43E
:1005700070000C7D641EE4B2234340EA0350D06255
:1005800030BD0000FFFEFFFCFDF7FFC0F0B50446E4
:100590000D4600200021092D11DDE068A5F10A06B5
:1005A00006EB4607072606FA07F18843A5F10A0677
:1005B00006EB460603FA06F10843E0600CE020690A
:1005C00005EB4507072606FA07F1884305EB4506C4
:1005D00003FA06F108432061072A0FDA606B561E02
:1005E00006EB86071F2606FA07F18843561E06EB20
:1005F000860605FA06F10843606322E00D2A0FDA49
:10060000206BD61F06EB86071F2606FA07F18843E4
:10061000D61F06EB860605FA06F10843206310E0B4
:10062000E06AA2F10D0606EB86071F2606FA07F11F
:100630008843A2F10D0606EB860605FA06F108438B
:10064000E062F0BD816841F0804181607047000048
:1006500070B53F480078801E81B23E4800F002FD30
:100660000446E5B2260A3A480078801E3949085CFB
:10067000A84234D136480078401E085CB0422ED1E2
:1006800008464078042817D006DC01280BD0022841
:100690000CD003281CD10CE0052810D0062811D05E
:1006A000102815D111E007F019F817E007F094F8B9
:1006B00014E007F02FF911E007F08AF90EE007F0D7
:1006C00003FA0BE007F044FA08E007F08FFA05E0C0
:1006D00020494878042109F0A1FA00BF36E01D48FE
:1006E000407804281DD006DC01280BD002280ED04B
:1006F00003282AD110E0052818D006281BD010287E
:1007000023D11DE00821012009F088FA1DE008210D
:10071000022009F083FA18E00821032009F07EFA8C
:1007200013E00821042009F079FA0EE008210520E1
:1007300009F074FA09E00821062009F06FFA04E0D4
:100740000821102009F06AFA00BF00BF70BD000048
:10075000010000205275002000BF05E005230022A3
:100760001146104609F012FAF8E71FB5684606F080
:1007700041FF019804B010BD00BFFEE72DE9F04134
:100780008AB004460D4616461F46DDF8408001211A
:10079000084606F0FFFE0121480606F00BFF4FF465
:1007A000C050089002208DF8240000208DF826000B
:1007B00003208DF8250001208DF8270008A92D4879
:1007C00001F046FE09220B212A4801F089FE092288
:1007D0000C21284801F084FE00208DF81A008DF8C5
:1007E0001B008DF81C0001208DF81D0000208DF8E5
:1007F0001E008DF81F008DF816808DF817408DF8BB
:1008000018608DF81950ADF8147005A91A4800F059
:10081000F2F900208DF80E008DF80F0001208DF800
:1008200010000020ADF80400ADF80600ADF8080097
:10083000ADF80A00ADF80C0001208DF8110001A8F8
:1008400000F04CF9012202210B4800F0CBF91420F2
:100850008DF8000001208DF8010000208DF80200C5
:1008600001208DF80300684602F0A8FC00200AB0C1
:10087000BDE8F081000002400064004010B5154A58
:100880000021154800F041FA12480068132820D1D1
:100890001048C07A1149A1F84E000E48007BA1F81B
:1008A00050000C48407BA1F852000A48807BA1F818
:1008B00054000848C07BA1F856000648007CA1F807
:1008C00058000448407CA1F85A000248807CA1F8F6
:1008D0005C0010BDD89A002000640040B69B002048
:1008E000F0B585B007460D46002410200090019019
:1008F00000208DF808008DF809008DF80A5000BF1F
:1009000005E0395D0DF10B000155601C84B2AC426D
:10091000F7DB69460C4800F070FA0646002401E057
:10092000601C84B23146084800F0FAFA18B940F663
:10093000FF708442F4DB40F6FF70844202DB01204A
:1009400005B0F0BD0020FBE7006400402DE9F04158
:100950008AB004460D4616461F46DDF84080012148
:10096000022006F017FE01214FF0C06006F022FEC3
:100970006020089002208DF8240000208DF82600C9
:1009800003208DF8250001208DF8270008A92E48A6
:1009900001F05EFD092205212B4801F0A1FD09228D
:1009A0000621294801F09CFD00208DF81A008DF8E1
:1009B0001B008DF81C0001208DF81D0000208DF813
:1009C0001E008DF81F008DF816808DF817408DF8E9
:1009D00018608DF81950ADF8147005A91B4800F087
:1009E0000AF90E208DF80E0000208DF80F0001206E
:1009F0008DF810000020ADF80400ADF80600ADF849
:100A00000800ADF80A00ADF80C0001208DF81100C7
:100A100001A800F063F8012202210C4800F0E2F87E
:100A200040208DF8000001208DF8010002208DF893
:100A3000020001208DF80300684602F0BFFB002091
:100A40000AB0BDE8F08100000004024000680040E8
:100A500010B51D4A00211D4800F057F91A480068DA
:100A600001282FD11848C07A194908701648007B10
:100A700048701548407B00F0010088701248407BA8
:100A800000F00200C8701048407B00F004000871BC
:100A90000D48407B00F0080048710B48407B00F097
:100AA000100088710848407B00F02000C87106489B
:100AB000407B00F04000087206480068C0430649C9
:100AC000C1F8A40210BD0000D89A002000680040C0
:100AD000EC9A0020A48240420080404210B50021E0
:100AE000837A012202FA03F13D4A126842F00102C0
:100AF0003B4B1A603A4A1C3212688A43384B1C330B
:100B00001A60027BCAB9364A0C3212688A43344BE7
:100B10000C331A604288C38842EA0343304A4032A9
:100B2000847A42F834300288838842EA03432C4AAC
:100B30004032847A02EBC4025360027B012A19D14D
:100B4000274A0C3212680A43254B0C331A6042883C
:100B5000038842EA0343224A4032847A42F834301E
:100B6000C288838842EA03431D4A4032847A02EBFA
:100B7000C4025360C27A3AB9194A121D12688A43F4
:100B8000174B1B1D1A6006E0154A121D12680A4316
:100B9000134B1B1D1A60028932B9114A14321268B4
:100BA0008A430F4B14331A600289012A06D10C4A7A
:100BB000143212680A430A4B14331A60427B012A2A
:100BC00006D1074A1C3212680A43054B1C331A60CF
:100BD000034A126822F00102014B1A6010BD0000A6
:100BE000006600401AB143690B43436102E0436968
:100BF0008B434361704730B50246002000231468E0
:100C000024F002041460146844F00104146000E04D
:100C10005B1C546804F001041CB94FF6FF74A34236
:100C2000F6D1546804F001040CB900206CE08C7912
:100C3000012C04D1146844F08004146003E01468AB
:100C400024F080041460CC79012C04D1146844F0A1
:100C50004004146003E0146824F0400414600C7A2B
:100C6000012C04D1146844F02004146003E01468DB
:100C700024F0200414604C7A012C04D1146844F050
:100C80001004146003E0146824F0100414608C7ADB
:100C9000012C04D1146844F00804146003E01468C3
:100CA00024F008041460CC7A012C04D1146844F0B8
:100CB0000404146003E0146824F0040414608C78C5
:100CC000A407CD7844EA05640D7944EA05444D79DA
:100CD00044EA05540D886D1E2C43D461146824F039
:100CE00001041460002300E05B1C546804F001045C
:100CF0001CB14FF6FF74A342F6D1546804F001040E
:100D00000CB1002000E0012030BD10B500F5D87313
:100D100003EB01131B6803F004031372137A53B936
:100D200000F5D87303EB01131B6840F2FF7404EA6B
:100D30005353136009E000F5D87303EB01131B68EC
:100D40006FF0604404EAD303536000F5D87303EBFB
:100D500001131B6803F00203537200F5D87303EB11
:100D600001135B6803F00F03937200F5D87303EB74
:100D700001135B681B0AD37400F5D87303EB0113EE
:100D80009B68D37200F5D87303EB01139B681C0AB0
:100D9000147300F5D87303EB01139B681C0C547398
:100DA00000F5D87303EB01139B681B0E937300F5DA
:100DB000D87303EB0113DB68D37300F5D87303EB2F
:100DC0000113DB681C0A147400F5D87303EB0113DC
:100DD000DB681C0C547400F5D87303EB0113DB685B
:100DE0001B0E937421B9C36843F02003C36003E072
:100DF000036943F02003036110BD10B502460020D3
:100E0000936803F08063B3F1806F00D110E09368C2
:100E100003F00063B3F1006F01D1012008E0936893
:100E200003F08053B3F1805F01D1022000E0042081
:100E3000042874D002F5C07303EB00131B6803F0A1
:100E4000010402F5C07303EB00131C600B7A7BB93D
:100E50004B7A0C8843EA445302F5C07404EB001447
:100E60002468234302F5C07404EB0014236010E0EF
:100E70000B7A4C6843EAC4034C7A234302F5C074EE
:100E800004EB00142468234302F5C07404EB00143F
:100E900023608B7A03F00F038B7202F5C07303EBB0
:100EA00000135B6823F00F0402F5C07303EB00131B
:100EB0005C6002F5C07303EB00135B688C7A23431C
:100EC00002F5C07404EB001463608B7B1C064B7B43
:100ED00044EA03440B7B44EA0323CC7A234302F520
:100EE000C07404EB0014A3608B7C1C064B7C44EAAA
:100EF00003440B7C44EA0323CC7B234302F5C074F8
:100F000004EB0014E36002F5C07303EB00131B68ED
:100F100043F0010402F5C07303EB00131C6010BD25
:100F200010B50246002321B1012907D002290FD1B3
:100F300009E090681D4C00EA04030BE090681C4C2B
:100F400000EA040306E090681A4C00EA040301E09A
:100F5000002300BF00BF184C181BA34216D007DCAB
:100F600083B16FF08060184470B1022818D111E08D
:100F7000B0F5007F10D0114C204448B1B0F5003FCF
:100F80000ED10BE002230DE000230BE0002309E06B
:100F9000002307E0012305E0012303E0012301E032
:100FA000002300BF00BFD8B210BD00000300000442
:100FB0000003000800000310000100080001FFF713
:100FC00010B500F01FF800F019F810BD10B500249E
:100FD00000BF00BFFFF76CF9044600BF00BF10213F
:100FE000054801F0EDFF00BF00BF2046FFF764F9A0
:100FF00000BF00BF10BD0000E2B7002010B5FFF732
:10100000E5FF10BD10B500200249086000F00AF8A5
:1010100010BD0000BC0000200149086070470000BE
:10102000BC00002010B5FFF7A0FB0446084800688C
:1010300040F0807006490860002006494860084674
:10104000006840F0010008602046FFF7E5FF10BD92
:10105000FCED00E0001000E0014948687047000026
:10106000001000E030B502460B464FF6FF7000213D
:1010700012E0555C684000240AE000F0010525B14B
:1010800040104AF20105684000E04010651CACB217
:10109000082CF2DB4D1CA9B29942EADB30BD704747
:1010A00010B50446012C0CD1474908700020487047
:1010B000012088700020C87004214348FFF710FC0D
:1010C00081E0022C0DD100203F49087001204870BA
:1010D000002088700120C87004213B48FFF700FC05
:1010E00071E0032C0BD100203749087048700120B3
:1010F0008870C87004213448FFF7F2FB63E0042CC9
:101100000BD1012030490870487000208870C870E9
:1011100004212D48FFF7E4FB55E0052C0DD10120FB
:101120002949087000204870012088700020C8708C
:1011300004212548FFF7D4FB45E0062C0BD1002005
:1011400021490870487088700120C87004211E4829
:10115000FFF7C6FB37E0072C0DD101201A490870B4
:1011600000204870012088700020C87004211648B3
:10117000FFF7B6FB27E0082C0CD1002012490870BD
:101180000120487000208870C87004210E48FFF7C5
:10119000A7FB18E0092C0AD101200B490870487000
:1011A0008870C87004210848FFF79AFB0BE00A2CEE
:1011B00009D100200449087048708870C870042163
:1011C0000148FFF78DFB10BD4A00002000200749B1
:1011D000488388820120A1F89600A1F89800002099
:1011E000488548800881488188817047B69B0020E7
:1011F00001200449A1F872000020A1F87400A1F8B0
:1012000076007047B69B00200024FCE3601CC4B24B
:10121000642C06D1FE480068C043FE49C1F8800234
:101220000024FD4890F85E00FC490870FA4890F8E8
:101230005E00FB490870FB48407900287ED1FA48DF
:10124000007800281ED0F748407801281AD1F748C6
:101250000078B8BBF048B0F84E00F04909788842F1
:1012600006DDED48B0F85000EC49097888420ADC08
:101270000120EC49C8700220E749A1F88C00052044
:1012800001F0D2FED6E3E448B0F84E00E349097815
:101290008842F7DDE048B0F85000E049097888421C
:1012A000F0DD0020DF49C8700520DB49A1F88C0083
:1012B000002301221946184608F068FC0120D9498C
:1012C0008871B7E3FFE7D9480078012839D1D248BF
:1012D000B0F85200D1490978884206DDCE48B0F80E
:1012E0005400CE49097888420ADC0120CD49C870F3
:1012F0000220C949A1F88C00052001F095FE99E370
:10130000C548B0F85200C54909788842BADDC248DC
:10131000B0F85400C14909788842B3DD0020C149C2
:10132000C8700520BC49A1F88C0000230122194691
:10133000184608F02BFC0120BA4900E0F1E0887162
:1013400078E3BA480078022837D1B348B0F856009D
:10135000B2490978884206DDAF48B0F85800AF4975
:10136000097888420ADC0120AE49C8700220AA49E7
:10137000A1F88C00052001F057FE5BE3A648B0F809
:101380005600A649097888429BDDA348B0F858006A
:10139000A2490978884294DD0020A249C87005203E
:1013A0009D49A1F88C00002301221946184608F037
:1013B000EDFB01209B4988713CE39C4800780328A1
:1013C00037D19548B0F85A0094490978884206DD2B
:1013D0009148B0F85C009149097888420ADC012004
:1013E0009049C87002208C49A1F88C00052001F0BA
:1013F0001BFE1FE38848B0F85A00884909788842E4
:101400009EDD8548B0F85C0084490978884297DD04
:1014100000208449C87005207F49A1F88C00002372
:1014200001221946184608F0B1FB01207D49887158
:1014300000E37E480078042837D17748B0F85C0094
:1014400076490978884206DD7348B0F8560073493A
:10145000097888420ADC01207249C87002206E496E
:10146000A1F88C00052001F0DFFDE3E26A48B0F846
:101470005C006A49097888429EDD6748B0F85600EA
:1014800066490978884297DD00206649C8700520C2
:101490006149A1F88C00002301221946184608F082
:1014A00075FB01205F498871C4E260480078052817
:1014B0009FD15948B0F85A0058490978884206DD4A
:1014C0005548B0F858005549097888420ADC01208F
:1014D0005449C87002205049A1F88C00052001F041
:1014E000A3FDA7E24C48B0F85A004C49097888425D
:1014F0009EDD4948B0F8580048490978884297DD90
:1015000000204849C87005204349A1F88C000023F9
:1015100001221946184608F039FB0120414988711B
:1015200088E24348807A00289FD032E03A48B0F8F9
:101530004E003B490978884209DB3748B0F8500033
:1015400037490978884202DB3A48006830B90120FF
:101550003449C870052001F067FD14E02E48B0F84A
:101560004E002F49097888420DDD2B48B0F8500015
:101570002B490978884206DD2E480068012802D1EF
:1015800000202849C870052300221146104608F0A3
:10159000FDFA294800780028C8D034E01E48B0F889
:1015A00052001F49097888420ADB1B48B0F85400F2
:1015B0001B490978884203DB1E48001F006830B9C8
:1015C00001201849C870052001F02EFD15E01248D1
:1015D000B0F852001249097888420EDD0E48B0F882
:1015E00054000F490978884207DD1248001F00683F
:1015F000012802D100200B49C870052300221146A2
:10160000104608F0C3FA0C4840780028C6D041E0E4
:101610008002424200004242B69B00205600002059
:10162000570000201A9D002058000020490000208B
:10163000369B00202482424228000020FE48B0F859
:101640005600FE490978884206DBFB48B0F858008E
:10165000FA490978884206DA0120F949C87005205C
:1016600001F0E2FC10E0F448B0F85600F3490978C4
:10167000884209DDF048B0F85800F04909788842FE
:1016800002DD0020EE49C8700523002211461046F5
:1016900008F07CFAEB4880780028CFD02BE0E648B1
:1016A000B0F85A00E5490978884206DBE248B0F80C
:1016B0005C00E2490978884206DA0120E049C870F6
:1016C000052001F0B1FC10E0DB48B0F85A00DB491E
:1016D0000978884209DDD848B0F85C00D749097814
:1016E000884202DD0020D649C87005230022114639
:1016F000104608F04BFAD348C0780028CFD02BE032
:10170000CD48B0F85600CD490978884206DBCA4872
:10171000B0F85C00C9490978884206DA0120C84956
:10172000C870052001F080FC10E0C348B0F85C00F0
:10173000C2490978884209DDBF48B0F85600BF4960
:101740000978884202DD0020BD49C87005230022C7
:101750001146104608F01AFABA48007A0028CFD08D
:101760002BE0B548B0F85A00B4490978884206DB46
:10177000B148B0F85800B1490978884206DA01202A
:10178000AF49C870052001F04FFC10E0AA48B0F83E
:101790005A00AA490978884209DDA748B0F85800DC
:1017A000A6490978884202DD0020A549C8700523B2
:1017B00000221146104608F0E9F9A248407A0028B4
:1017C000CFD047E09C48B0F84E009C490978884249
:1017D00014DB9948B0F850009849097888420DDB2D
:1017E0009548B0F8560095490978884206DB92483A
:1017F000B0F8580091490978884206DA01209049EA
:10180000C870052001F010FC1EE08B48B0F84E00B7
:101810008A490978884217DD8748B0F8500087491F
:101820000978884210DD8448B0F856008349097869
:10183000884209DD8048B0F858008049097888421C
:1018400002DD00207E49C8700523002211461046A3
:1018500008F09CF97B4800790028B3D047E076482F
:10186000B0F8520075490978884214DB7248B0F824
:1018700054007249097888420DDB6F48B0F8560071
:101880006E490978884206DB6B48B0F858006B490E
:101890000978884206DA01206949C870052001F0FC
:1018A000C3FB1EE06448B0F85200644909788842DE
:1018B00017DD6148B0F8540060490978884210DDAE
:1018C0005D48B0F856005D490978884209DD5A48FC
:1018D000B0F8580059490978884202DD002058497B
:1018E000C870052300221146104608F04FF95548EC
:1018F00040790028B3D047E04F48B0F84E004F4938
:101900000978884214DB4C48B0F850004B490978FC
:1019100088420DDB4848B0F85A00484909788842A7
:1019200006DB4548B0F85C0044490978884206DA8D
:1019300001204349C870052001F076FB1EE03E48B7
:10194000B0F84E003D490978884217DD3A48B0F8B2
:1019500050003A490978884210DD3748B0F85A00FB
:1019600036490978884209DD3348B0F85C003349CC
:101970000978884202DD00203149C8700523002221
:101980001146104608F002F92E4880790028B3D09D
:1019900049E02948B0F8520028490978884214DB08
:1019A0002548B0F854002549097888420DDB2248C3
:1019B000B0F85A0021490978884206DB1E48B0F881
:1019C0005C001E490978884206DA01201C49C8706B
:1019D000052001F029FB20E01748B0F85200174914
:1019E0000978884219DD1448B0F854001349097881
:1019F000884212DD1048B0F85A0010490978884230
:101A00000BDD0D4800E024E0B0F85C000B490978DC
:101A1000884202DD00200A49C870052300221146D1
:101A2000104608F0B3F80748C0790028B1D000206C
:101A30000349C870052307E0B69B0020570000202B
:101A40001A9D00202800002000221146104608F0B0
:101A50009DF8FFF7DBBB05E0052300221146104689
:101A600008F094F8F8E700240CE0601C84B2282CFD
:101A700002D1002400F0E0FE0523002211461046AA
:101A800008F084F8F1E705E005230022114610462E
:101A900008F07CF8F8E7000010B50749074800F0A7
:101AA00063F938B10449054800F088F8002103487B
:101AB00000F09EF810BD0000008000185860024041
:101AC00010B50A490A4800F04FF968B1012240F206
:101AD0002661084807F04DFD0449054800F06EF8FE
:101AE0000021034800F084F810BD00002080002091
:101AF00070600240004C004010B50749074800F0F4
:101B000033F938B10449054800F058F8002103487A
:101B100000F06EF810BD000000802020A0600240A0
:101B20002DE9F04100261549154800F01DF910B3C4
:101B300000241AE0002509E005EB4500114901EBFE
:101B4000400030F814000644681CC5B21E2DF3DBBB
:101B50001E2096FBF0F7384608F0C0FB0A4A02EB5D
:101B6000C40203C20026601CC4B2032CE2DB03499A
:101B7000034800F023F8BDE8F08100002080001049
:101B800010640240887300204074002010B508499A
:101B9000084800F0E9F850B10549064800F00EF891
:101BA0000021044800F024F801200349087010BD0A
:101BB00000800028B86402408C0000200246094BD7
:101BC0009A4201D2084801E00648103801F000535B
:101BD0001BB1064B0B40C36002E0044B0B4083601B
:101BE0007047000010640240006002407D0F7D0FCE
:101BF00021B1026842F00102026003E0026822F0B3
:101C00000102026070470000016821F001010160DB
:101C10000021016041608160C16001612121416159
:101C20004A49884204D13D21484A103A91608CE0EB
:101C300046491831884205D14FF47461434A103A3D
:101C4000916082E041493031884205D14FF47411EE
:101C50003E4A103A916078E03C494831884205D1CB
:101C60004FF07461394A103A91606EE03749603143
:101C7000884204D13649354A103AD16065E033498B
:101C80007831884204D13349304A103AD1605CE05F
:101C90002E499031884204D12F492C4A103AD16004
:101CA00053E02A49A831884205D14FF03D51274AD7
:101CB000103AD16049E02949884204D13D21274AA0
:101CC000083A116041E025491831884205D14FF4A6
:101CD0007461224A083A116037E020493031884265
:101CE00005D14FF474111D4A083A11602DE01B49CB
:101CF0004831884205D14FF07461184A083A1160A2
:101D000023E016496031884204D11149134A121F59
:101D100011601AE011497831884204D10D490F4A07
:101D2000121F116011E00D499031884204D10A4917
:101D30000A4A121F116008E00849A831884204D1FC
:101D40004FF03D51054A121F11607047106002406C
:101D50003D000020400F002000003D2010640240A4
:101D60000146486880B2704770B5024600200024E2
:101D70000025124EB24201D2114B01E00F4B103B35
:101D8000104E0E4036B11E2606EAD124166806EA29
:101D9000040502E0566906F0800501F000560EB118
:101DA0005C6800E01C68084E344004EA010616B185
:101DB0000DB1012000E0002070BD00001064024061
:101DC000006002403C0F3C0F7D0F7D0F10B501F00D
:101DD00080034BB122B1436943F08003436103E0C8
:101DE000436923F08003436180290BD02AB1036843
:101DF00001F01E042343036004E0036801F01E04A5
:101E0000A343036010BD000010B500220268134B0D
:101E10001A40CC680B6823434C6923438C692343E5
:101E2000CC6923430C6A23434C6A23438C6A2343C3
:101E30004C6B23438C6B23431A430260426922F0AC
:101E40000702D1E90B3423431A4342610B69436013
:101E50004B6883608B68C36010BD00003F801CF03E
:101E60004160704700B591B00121480505F092FB33
:101E700000213A48FFF7BCFE3848FFF7C5FE4FF097
:101E8000006001903648029036480390402004904C
:101E9000FA200590002006904FF480600790002003
:101EA000089009904FF480700A9000200C90032055
:101EB0000D9000040B9000200E900F9001A9274870
:101EC000FFF7A2FF00212548FFF792FE0122102113
:101ED0002248FFF77BFF002120481838FFF788FED3
:101EE0001E481838FFF790FE4FF0006001901C4824
:101EF00002901D48039000200490FA2005900020D5
:101F000006904FF4806007900020089009904FF4ED
:101F100080700A9000200C9003200D9000040B901C
:101F200000200E900F9001A90C481838FFF76CFFA5
:101F300001210A481838FFF75BFE11208DF8400098
:101F400002208DF8410005208DF8420001208DF817
:101F5000430010A801F032F911B000BDA0600240AA
:101F600004440040467700204C76002000B591B034
:101F70000121480505F00EFB00213A48FFF738FE25
:101F80003848FFF741FE4FF000600190364802905C
:101F9000364803904020049082200590002006904F
:101FA0004FF4806007900020089009904FF48070F3
:101FB0000A9000200C9003200D9000040B9000204C
:101FC0000E900F9001A92748FFF71EFF002125481A
:101FD000FFF70EFE012210212248FFF7F7FE002135
:101FE00020483038FFF704FE1E483038FFF70CFE5B
:101FF0004FF0006001901C4802901D4803900020A3
:10200000049082200590002006904FF48060079095
:102010000020089009904FF480700A9000200C90E6
:1020200003200D9000040B9000200E900F9001A94A
:102030000C483038FFF7E8FE01210A483038FFF736
:10204000D7FD0E208DF8400002208DF841000520BC
:102050008DF8420001208DF8430010A801F0AEF881
:1020600011B000BD5860024004480040B67A00201C
:10207000347A002000B591B00121480505F08AFAB4
:1020800000213A48FFF7B4FD3848FFF7BDFD4FF097
:10209000006001903648029036480390402004903A
:1020A000FA200590002006904FF4806007900020F1
:1020B000089009904FF480700A9000200C90032043
:1020C0000D9000040B9000200E900F9001A927485E
:1020D000FFF79AFE00212548FFF78AFD0122102113
:1020E0002248FFF773FE002120483038FFF780FDBB
:1020F0001E483038FFF788FD4FF0006001901C4803
:1021000002901D48039000200490FA2005900020C2
:1021100006904FF4806007900020089009904FF4DB
:1021200080700A9000200C9003200D9000040B900A
:1021300000200E900F9001A90C483038FFF764FE84
:1021400001210A483038FFF753FD0F208DF8400079
:1021500002208DF8410004208DF8420001208DF806
:10216000430010A801F02AF811B000BD70600240D1
:10217000044C0040587400205275002000B591B006
:102180000121880505F006FA00213A48FFF730FDE5
:102190003848FFF739FD4FF0206001903648029033
:1021A0003648039040200490FA20059000200690C5
:1021B0004FF4806007900020089009904FF48070E1
:1021C0000A9000200C9003200D9000040B9000203A
:1021D0000E900F9001A92748FFF716FE0021254811
:1021E000FFF706FD012210212248FFF7EFFD002135
:1021F00020489038FFF7FCFC1E489038FFF704FD9C
:102200004FF0206001901C4802901D480390002070
:102210000490FA200590002006904FF4806007900B
:102220000020089009904FF480700A9000200C90D4
:1022300003200D9000040B9000200E900F9001A938
:102240000C489038FFF7E0FD01210A489038FFF76D
:10225000CFFC46208DF8400002208DF8410004207C
:102260008DF8420001208DF8430010A800F0A6FF71
:1022700011B000BDB8640240041401403A79002056
:102280004078002000B591B00121880505F082F961
:1022900000212048FFF7ACFC1E48FFF7B5FC0020EA
:1022A00001901D4802901D480390002004905A2080
:1022B0000590002006904FF4806007904000089041
:1022C0000990C0100A9000200C9003200D9000048B
:1022D0000B9000200E900F9001A90E48FFF794FD7F
:1022E000012210210B48FFF771FD01210948FFF77A
:1022F0007FFC38208DF8400002208DF8410003203B
:102300008DF8420001208DF8430010A800F056FF20
:1023100011B000BD106402404C20014088730020C1
:102320007047000070B54548B0F86E0000287CDDAD
:102330004248B0F86E00002827DD4048B0F86E0033
:102340003E49B1F8701088421FD03C48B0F8704048
:1023500016E0002510E004EB4400394901EB400091
:1023600030F81510601E00EB4000354A02EB4000CB
:1023700020F81510681C85B2032DECDB601C84B2BC
:102380002E48B0F86E00A042E3DC2C48B0F86E0096
:10239000401E2A49A1F86E000846B0F86E0018B930
:1023A0000020A1F870000FE02448B0F86E00401C37
:1023B0002249B1F87010884206D12048B0F8700068
:1023C000401E1E49A1F87000002415E01B4AB2F817
:1023D0006C20521E1B4B4FF4967606FB02320323F1
:1023E00003FB042104EB4402154B03EB42000322E0
:1023F00007F03EFB601C84B21048B0F86E00A042AB
:10240000E4DC0E48B0F86E10B0F86C00401E0E4AC6
:1024100022F81010094AB2F86C200C4BD118074A68
:10242000B2F86C20521E084B00E006E003EB4200BD
:10243000012207F01DFB07F03FF970BDB69B00209D
:102440008AB500208E460F00A2B1002099440F00EB
:10245000F0B50A4600210023002400BF3DE001251D
:1024600005FA01F3156805EA03049C4234D10568B6
:102470004F000326BE40B543056015794E00B540B8
:102480000668354305601579012D02D01579022DB6
:1024900016D185684F000326BE40B5438560557947
:1024A0004E00B540866835438560456801268E40FC
:1024B000B5434560456896798E40B6B23543456070
:1024C000C5684F000326BE40B543C560D5794E00B0
:1024D000B540C6683543C560491C1029BFD3F0BD5F
:1024E000F0B5002300244D07ED0E02FA05F3CE10DF
:1024F00000F1200555F826504E07F70E0F26BE4076
:10250000B543CF1000F1200646F82750CE1000F159
:10251000200555F8265045EA0304CE1000F12005A9
:1025200045F82640F0BD41837047018370470000A5
:1025300070B50024344AB2F86C20344BD118324ABA
:10254000B2F86C20521E324B03EB4200012207F01E
:1025500005FA2D48B0F86C00401E2D4931F81000E6
:102560002949A1F86E000120A1F870000846B0F8D2
:102570006E00642804DD0020A1F86E00A1F8700050
:10258000002415E0204AB2F86C20521E214B4FF473
:10259000967505FB0232032303FB042104EB44027E
:1025A0001D4B03EB4200032207F0D8F9601C84B2F4
:1025B0001548B0F86E00A042E4DC1348B0F8700093
:1025C000401E00EB4000144931F810000E49A1F8FC
:1025D00072000846B0F87000401E00EB40000E4943
:1025E00001EB400040880849A1F874000846B0F8A3
:1025F0007000401E00EB4000074901EB400080885E
:102600000149A1F8760070BDB69B002099440F00E7
:10261000A2B100208E460F008AB5002070B5044696
:1026200000252F4AA118621E2E4B03EB4200012207
:1026300007F094F9601E2B4931F810002A49A1F8DF
:102640006E000120A1F870000846B0F86E00642802
:1026500004DD0020A1F86E00A1F87000002512E052
:10266000621E224B4FF4967606FB0232032303FBD5
:10267000052105EB45021E4B03EB4200032207F048
:102680006DF9681C85B21848B0F86E00A842E7DC06
:102690001548B0F87000401E00EB4000144931F8B6
:1026A00010001149A1F872000846B0F87000401EF1
:1026B00000EB40000E4901EB400040880A49A1F8B8
:1026C00074000846B0F87000401E00EB4000084956
:1026D00001EB400080880449A1F8760070BD00003D
:1026E00099440F00A2B10020B69B00208E460F0037
:1026F0008AB5002010B50446064AA118621E064B92
:1027000003EB4200012207F029F9601E024931F86B
:10271000100010BD99440F00A2B1002070B505460D
:10272000284600F025F80F49C884002412E06A1EEC
:102730004FF4FA635A4302F25922142303FB042193
:1027400004EB8402084B03EBC200142207F006F9E5
:10275000601C84B2681E054931F81000A042E6DC16
:1027600070BD0000B69B0020DAA10020F29D002081
:1027700010B5044604F16401621E0B4B03EB4200EA
:10278000012207F0EBF8601E074931F810006428B9
:1027900004DD0021601E044A22F81010601E024968
:1027A00031F8100010BD0000F29D002000BFFEE7D0
:1027B000302805DB392803DCA0F13001C8B210E075
:1027C000412805DB462803DCA0F13701C8B208E048
:1027D000612805DB662803DCA0F15701C8B200E0E0
:1027E000FF20704710B50D48B0F88400022805D1CD
:1027F000FFF79EFE0A4800880849C8860749C88E28
:10280000FFF7B6FF0549C88400204880C88EFFF74F
:1028100085FF044840890149888710BDB69B002088
:102820008AB50020DAA100204CF6CC4001490860AE
:10283000704700000030004010B500F013F810BDE4
:1028400070B505460C4645F2555000F01FF8284675
:1028500000F010F8204600F013F800F003F8FFF73E
:10286000E3FF70BD4AF6AA200149086070470000E6
:1028700000300040014948607047000000300040CF
:10288000014988607047000000300040014908603D
:10289000704700000030004070B53C48B0F86E1042
:1028A000B0F86C00401E3A4A22F81010374AB2F8CD
:1028B0006C20384BD118354AB2F86C20521E344B7C
:1028C00003EB4200012207F0D3F83048B0F86E4025
:1028D00017E0002511E0A01E00EB40002E4901EB9F
:1028E000400030F81510601E00EB40002A4A02EB51
:1028F000400020F81510681C85B2032DEBDB601E2C
:1029000084B22248B0F87000A042E2DD1F48B0F85F
:102910007210B0F87000401E00EB40001E4A22F812
:1029200010101A48B0F87410B0F87000401E00EB98
:10293000400002EB400041801448B0F87610B0F837
:102940007000401E00EB400002EB4000818000243C
:1029500015E00E4AB2F86C20521E104B4FF49676DA
:1029600006FB0232032303FB042104EB44020A4B5F
:1029700003EB4200032207F07BF8601C84B203489B
:10298000B0F86E00A042E4DC70BD0000B69B0020F1
:10299000A2B1002099440F008AB500208E460F0096
:1029A0001CB50121202004F0F5FD0121022004F0D6
:1029B000F1FD0121402004F0EDFD0121084604F065
:1029C000E9FD0121042004F0E5FD0121082004F0C7
:1029D000E1FD0121102004F0DDFD20200090002009
:1029E0008DF8040003208DF8050001208DF8070004
:1029F00069467D48FFF72CFD48F21040009000200A
:102A00008DF8040003208DF8050001208DF80700E3
:102A100069467648FFF71CFD44F2F07000900020F4
:102A20008DF8040003208DF8050001208DF80700C3
:102A300069466F48FFF70CFD48F20810009001202E
:102A40008DF8040000208DF8060003208DF80500A5
:102A500001208DF8070069466348FFF7F9FC002064
:102A60006449086001206449C1F8A002614930311D
:102A7000086040F2F970009001208DF804000020F9
:102A80008DF8060003208DF8050001208DF8070061
:102A900069465A48FFF7DCFC01205949086058494B
:102AA0000C310860091D0860091D0860091D0860D7
:102AB000091D0860091D0860091D08605149C1F819
:102AC000A8023020009001208DF8040000208DF82D
:102AD000060003208DF8050001208DF807006946E7
:102AE0004948FFF7B5FC0120484908604849C1F84A
:102AF00094024FF21B00009001208DF8040000208A
:102B00008DF8060003208DF8050001208DF80700E0
:102B100069464048FFF79CFC01203F490860091DB9
:102B200008603D490C310860091D08603A493031A0
:102B30000860091D0860091D08603849C1F8BC0219
:102B40000320009001208DF8040000208DF806007D
:102B500003208DF8050001208DF807006946234801
:102B6000FFF776FC01202E4908602E49C1F8840247
:102B70000F20009001208DF8040000208DF8060041
:102B800003208DF8050001208DF8070069461848DC
:102B9000FFF75EFC012024490860091D0860091D3B
:102BA00008602249C1F88C024FF46C40009001206B
:102BB0008DF8040000208DF8060003208DF8050034
:102BC00001208DF8070069461948FFF741FC0120F4
:102BD00018490860174914390860091D086016492A
:102BE000C1F8B4021CBD0000000002400010024009
:102BF000001402408C0240420000404200040240A7
:102C000080824042008040420008024090024142DF
:102C100000004142000C024080824142008041425B
:102C20008002424200004242808242420080424290
:102C300000180240BC0243420000434200BFB6E11C
:102C4000DB48407901282FD1D948C0780028FAD133
:102C5000D848007848BB0120FEF722FA1DE0D6488C
:102C6000B0F86410012000F06DFAD348B0F8641099
:102C7000022000F067FAD048B0F86410032000F09A
:102C800061FACD48B0F86410042000F05BFA0A2322
:102C900000221146104606F079FFC6480078002849
:102CA000DDD0052000F0C0F97BE1C248407848BB88
:102CB0000220FEF7F5F91DE0BF48B0F864100120CE
:102CC00000F006FABC48B0F86410022000F000FAE8
:102CD000B948B0F86410032000F0FAF9B648B0F82B
:102CE0006410042000F0F4F90A2300221146104673
:102CF00006F04CFFAF4840780028DDD0052000F0FA
:102D000093F94EE1AB48807848BB0320FEF7C8F941
:102D10001DE0A948B0F86410012000F0D9F9A648D8
:102D2000B0F86410022000F00DFAA348B0F8641067
:102D3000032000F007FAA048B0F86410042000F067
:102D4000C7F90A2300221146104606F01FFF9948D2
:102D500080780028DDD0052000F066F921E1954853
:102D6000C07848BB0420FEF79BF91DE09248B0F8FC
:102D70006410012000F0E6F98F48B0F864100220DA
:102D800000F0A6F98C48B0F86410032000F0A0F918
:102D90008948B0F86410042000F0D4F90A23002216
:102DA0001146104606F0F2FE8248C0780028DDD0B9
:102DB000052000F039F9F4E07E48007918BB0520C1
:102DC000FEF76EF917E0012000F02EF97A48B0F80E
:102DD0006410022000F0B6F97748B0F864100320C0
:102DE00000F0B0F9042000F01FF90A230022114678
:102DF000104606F0CBFE6F4800790028E3D005208E
:102E000000F012F9CDE06B48407918BB0620FEF7C0
:102E100047F917E06848B0F86410012000F058F94D
:102E2000022000F001F9032000F0FEF86248B0F83B
:102E30006410042000F04CF90A23002211461046C9
:102E400006F0A4FE5B4840790028E3D0052000F09E
:102E5000EBF8A6E05748807918BB0720FEF720F969
:102E600017E05548B0F86410012000F06BF902201B
:102E700000F0DAF8032000F0D7F84F48B0F86410FB
:102E8000042000F05FF90A2300221146104606F0E4
:102E90007DFE484880790028E3D0052000F0C4F882
:102EA0007FE04448C07918BB0820FEF7F9F817E026
:102EB000012000F0B9F84048B0F86410022000F09A
:102EC00007F93D48B0F86410032000F001F9042030
:102ED00000F0AAF80A2300221146104606F056FE1A
:102EE0003448C0790028E3D0052000F09DF858E070
:102EF0003048007A48BB0920FEF7D2F81DE02E4882
:102F0000B0F86410012000F0E3F82B48B0F864102A
:102F1000022000F017F92848B0F86410032000F0F0
:102F2000D7F82548B0F86410042000F00BF90A2304
:102F300000221146104606F029FE1E48007A00289D
:102F4000DDD0052000F070F82BE01A48407A40BB35
:102F50000A20FEF7A5F81DE01748B0F8641001201C
:102F600000F0F0F81448B0F86410022000F0B0F857
:102F70001148B0F86410032000F0E4F80E48B0F8EF
:102F80006410042000F0A4F80A2300221146104621
:102F900006F0FCFD0748407A0028DDD0052000F04F
:102FA00043F80A2300221146104606F0EFFD47E6DB
:102FB0001A9D002028000020B69B002000BFFEE7DD
:102FC00030B505460C4622460021284600F001F89F
:102FD00030BD2DE9F04105460B46944600270024FC
:102FE00002E03F021F43641C042CFAD3604605F044
:102FF0000306294646B1344603E001F8013B401E72
:10300000641C08B1042CF8D30A4601E080C2001FFA
:103010000428FBD2114602E001F8013B401E0028C3
:10302000FAD1BDE8F081000010B50446012C07D1AB
:103030000020234908600021224805F095FE3EE06B
:10304000022C08D100201E49091F086000211D48DC
:1030500005F08CFE33E0032C08D1002018490C3910
:1030600008600021174805F083FE28E0042C08D1F1
:1030700000201349103908600021124805F07AFE3B
:103080001DE00020104908700D4908600F49C1F883
:103090008C020B490C3908600C49C1F880020021F0
:1030A000084805F061FE0021064805F05FFE00219A
:1030B000044805F05DFE0021024805F05BFE10BDEE
:1030C00090824142000800404800002000804142B8
:1030D00070B505460C46012D06D0022D0DD0032DEE
:1030E00015D0042D27D11CE0012014490860C4F537
:1030F0007A71134805F038FE1EE001200F49091FC0
:103100000860C4F57A710E4805F030FE14E0012025
:103110000A490C390860C4F57A71094805F028FE9F
:103120000AE00120054910390860C4F57A710448A5
:1031300005F020FE00E000BF00BF70BD908241425C
:103140000008004070B505460C46012D06D0022D42
:103150000DD0032D15D0042D27D11CE001201449DA
:103160000860C4F57A71134805F0FEFD1EE00120E9
:103170000F49091F0860C4F57A710E4805F0F6FD85
:1031800014E001200A490C390860C4F57A71094835
:1031900005F0EEFD0AE00120054910390860C4F58C
:1031A0007A71044805F0E6FD00E000BF00BF70BD85
:1031B00090824142000800407047000070B5002135
:1031C00000230F22C4781CB3174C246804F4E06475
:1031D000C4F5E064C4F30721C1F10404E3B20A4179
:1031E00044789C40E1B28478144021430C07210EBE
:1031F0000E4C05786155047804F01F050124AC409D
:1032000005786D11AD0005F1E025C5F8004109E034
:10321000047804F01F050124AC40054D06787611B2
:1032200045F8264070BD00000CED00E000E400E031
:1032300080E100E002490143024A1160704700004A
:103240000000FA050CED00E015481648164817482E
:10325000174818481848194819481A481A481B4866
:103260001B481C481C481D481D481E481E481F4836
:103270001F48204820482148214822482248234806
:1032800023482448244825482548264826482748D6
:103290002748284828482948294800BF7047000087
:1032A000B4A3000814A3000818A300081CA3000876
:1032B00020A3000824A3000828A300082CA30008CA
:1032C00030A3000834A3000838A300083CA300087A
:1032D00040A3000844A3000848A300084CA300082A
:1032E00050A3000854A3000858A300085CA30008DA
:1032F00060A3000864A3000868A300086CA300088A
:1033000070A3000874A3000878A300087CA3000839
:1033100080A3000884A3000888A300088CA30008E9
:1033200090A3000894A3000898A300089CA3000899
:10333000A0A30008A4A30008A8A30008ACA3000849
:10334000B0A3000810B50348006810B10148006838
:10335000804710BDD400002070B5044600F0C2F8CC
:103360000020484908704849087048490870484991
:103370000860484908604849087048490870484949
:103380000870484908604849086048490860484949
:103390000870484800680A21B0FBF1F0464908600F
:1033A0004648006858B14648056845B14348066834
:1033B00003E0761E002028602D1D002EF9D100208C
:1033C0004049086040490860404908604049086039
:1033D0004049086040490860404908604049087019
:1033E00002F0ECF902F0CCFA204601F07BFB2088D9
:1033F00000B170BD204601F05DFF208800B1F8E704
:10340000204601F07FFF208800B1F2E7204602F05D
:103410004BF8208800B1ECE7204602F0FFF9208845
:1034200000B1E6E7204602F01FFC208800B1E0E78B
:10343000204602F041FF208800B1DAE7204601F083
:10344000A5FE208800B1D4E7204601F0BDFC20880D
:1034500000B1CEE7204603F09FFE208800B1C8E708
:10346000204602F06DFE208800B1C2E7204603F03E
:10347000EFFE208800B1BCE701F05CFAFFF7E4FE44
:1034800000BFB6E7E8000020E9000020300100207E
:10349000880100208C010020160100201701002067
:1034A0001801002024010020280100202C01002008
:1034B0003801002074A300083401002044A3000850
:1034C00040A30008C8000020CC000020D00000204D
:1034D000D4000020D8000020DC000020E000002004
:1034E00066010020064800680649096800EB810073
:1034F000054908600846006820F00700086070472A
:1035000040A3000844A30008900100200848007868
:10351000012800D0704707480078FA2800DBF9E757
:1035200004480078401C0349087000BFF2E700001F
:10353000E9000020E800002010B500242D480078A4
:10354000012800D010BD00BFFCF7B2FE044600BF4A
:103550002948007828B900BF2046FCF7ADFE00BF1F
:10356000F0E725480078401E234908700846007897
:10357000002805DD00BF2046FCF79EFE00BFE1E706
:103580001E480078002805DD00BF2046FCF794FEA9
:1035900000BFD7E702F0FEF8194908700846007826
:1035A00000EB4000174951F8200017490860084611
:1035B000006816490968884205D100BF2046FCF71B
:1035C0007BFE00BFBEE710480068D0F89000401CAA
:1035D0000D490968C1F890000D480068401C0C496D
:1035E0000860FCF7D7FE00BF2046FCF765FE00BF71
:1035F00000BFA7E7E9000020E8000020300100201C
:103600001701002018CE00208C0100208801002026
:103610005C01002010B500241F480078002800DD60
:1036200010BD1E480078002800DDF9E700BFFCF758
:103630003FFE044600BF02F0ADF819490870084685
:10364000007800EB4000174951F820001649086047
:103650000846006815490968884205D100BF204620
:10366000FCF72AFE00BFDBE70F480068D0F89000A7
:10367000401C0D490968C1F890000D480068401CC5
:103680000B490860FCF781FE00BF2046FCF714FEE2
:1036900000BF00BFC4E70000E800002030010020A8
:1036A0001701002018CE00208C0100208801002086
:1036B0005C01002070B504460025184800780028F9
:1036C00003DD46F66250208070BD15480078012861
:1036D00003D045F689602080F6E712480078FA2882
:1036E00003DB45F209202080EEE700BF00BFFCF7B6
:1036F000DFFD054600BF00BF0A480078401C0949AD
:10370000087002F01DFA00BF00BF2846FCF7D4FD88
:1037100000BF00BF0020208000BFD5E7E8000020E8
:10372000E9000020300100202DE9F04105460C465B
:103730001646002700BF00BFFCF7BAFD074600BFD2
:1037400000BF012D03D000200D49087002E00120C8
:103750000B49087014B10B48046006E00A48006881
:103760000A21B0FBF1F00749086000BF00BF3846EE
:10377000FCF7A2FD00BF00BF00203080BDE8F08153
:10378000380100203401002074A3000870B50446FD
:10379000002520480078002803DD46F6655020808B
:1037A00070BD1D480078012803D045F6896020804F
:1037B000F6E71A48007818B946F664502080EFE71B
:1037C00000BF00BFFCF774FD054600BF00BF1348F3
:1037D0000078401E114908700846007800280ADD6C
:1037E00000BF00BF2846FCF767FD00BF00BF46F6DC
:1037F00063502080D4E702F0B1F900BF00BF284633
:10380000FCF75AFD00BF00BFFFF704FF0020208037
:1038100000BFC5E7E8000020E900002030010020DB
:1038200010B5044612480078E8B901F0B3FF114919
:10383000087008460078104908700E48007800EBC0
:1038400040000E4951F820000D4908600846006804
:103850000C490860012006490870FCF785FD43F615
:103860009920208002E045F68A60208010BD00008B
:10387000E9000020170100201601002018CE0020CA
:103880008C010020880100202DE9F04107464FF00F
:10389000000800BF00BFFCF70BFD804600BF00BF63
:1038A00000203D4908603D4908803D4908803D4968
:1038B00008603D4908603D4908603D4908603D4950
:1038C000088100BF00BF4046FCF7F6FC00BF00BF08
:1038D00000BF00BFFCF7ECFC804600BF00BF3648CD
:1038E000046800BF00BF4046FCF7E6FC00BF00BF15
:1038F00021E000BF00BFFCF7DBFC804600BF00BF3B
:1039000000207834E06320602063A061A082E08220
:103910006062A062FDF7A0FB2062783C04F16406BF
:103920000020B081D4F8BC4000BF00BF4046FCF787
:10393000C3FC00BF00BF002CDBD100BF00BFFCF701
:10394000B7FC804600BF00BF1C48056800BF00BF31
:103950004046FCF7B1FC00BF00BF12E000BF00BF53
:10396000FCF7A6FC804600BF00BF05F12006002042
:10397000B081AD6900BF00BF4046FCF79DFC00BFB1
:1039800000BF002DEAD103F0E3FA03F05DFD002053
:103990003880BDE8F0810000FC000020F600002027
:1039A00046010020580100206C0100207801002011
:1039B000280100200CCE0020600100201C01002006
:1039C000F8B5044600266946324800F08FFDBDF880
:1039D000000018B1BDF800002080F8BD6A46002143
:1039E000022000F0F7FDBDF8000018B1BDF800009E
:1039F0002080F2E700BF00BFFCF75AFC064600BF7C
:103A000000BF00202449086000BF00BF3046FCF71B
:103A100053FC00BF00BF002520480068204909680A
:103A2000884205D91D4800681D490968B0FBF1F5B9
:103A300025B91A4800680A21B0FBF1F56A46002151
:103A4000284600F0C7FD6946124800F063FABDF849
:103A5000000018B1BDF800002080BEE700BF00BF25
:103A6000FCF726FC064600BF00BF00200D49086099
:103A7000094800680C49086001200C49087000BF23
:103A800000BF3046FCF718FC00BF00BF00202080BC
:103A900000BFA2E7A0D200204801002074A30008C4
:103AA0005CA30008580100204C01002054010020B4
:103AB00010B50348006810B101480068804710BD88
:103AC000D80000202DE9FF4F87B004469046DDE97D
:103AD0001BA5DDE91496179F002003908748007806
:103AE000002805DD47F24A1028800BB0BDE8F08FB2
:103AF0001CB947F2AD102880F7E7B8F1000F03D1E9
:103B000047F24F102880F0E71EB946F62F60288054
:103B1000EBE77B480068874203D246F63060288096
:103B2000E3E71698B84203D346F631602880DCE715
:103B3000B9F1400F03D346F273202880D5E7B9F1DD
:103B4000000F06D16F48844203D046F273202880CC
:103B5000CBE7B9F13F0F06D16B48844203D046F260
:103B600073202880C1E7204602F0B6FB00202880A1
:103B70000AF0010090B10AF0020078B10596002029
:103B8000069008E00021059801600598001D059049
:103B90000698401C06900698B842F3D3169806EB98
:103BA00080000490CDE9007A32464046049B0A9991
:103BB00000F06EFB0590C4F828800A98E06208982F
:103BC000206284F83790059820600498A0601998C6
:103BD0006065199818B94D480068A06501E019980A
:103BE000A0651A9860606662A763A4F83CA04FF0D5
:103BF000000B08E0002104F17C0040F82B100BF1D1
:103C0000010000F0FF0BBBF1000FF3D004F16400E2
:103C1000189901F0C3FB204600F082F800BF00BFF6
:103C200000BFFCF745FB039000BF00BF3848007899
:103C3000401C3749087000BF00BF0398FCF73CFBED
:103C400000BF00BF00BF94F8370001F0C3FD20465D
:103C500001F0DEFE204602F0F5FA2E480088401CF6
:103C60002C4908802C48007801282DD000BF00BFC7
:103C700000BFFCF71DFB039000BF00BF2448007885
:103C8000401E2349087008460078A0B923480088E0
:103C9000002809DD00BF00BF0398FCF70DFB00BF43
:103CA00000BF01F023FF0DE000BF00BF0398FCF749
:103CB00003FB00BF06E000BF00BF0398FCF7FCFA5F
:103CC00000BF00BF00BF10E700BF00BF00BFFCF790
:103CD000EFFA039000BF00BF0D480078401E0C496A
:103CE000087000BF00BF0398FCF7E6FA00BF00BFF2
:103CF00000BFFFF78FFC00BFF7E60000E8000020E0
:103D000070A3000848CD002084CC0020340100209E
:103D10003001002064010020E9000020F4000020B0
:103D200010B504460348006818B1204601490968E7
:103D3000884710BDC800002070B504460D46002617
:103D400067480078002803DD47F24E10288070BDD8
:103D50006448844203D147F24C102880F7E7624858
:103D6000844203D147F24D102880F0E77CB900BFB0
:103D700000BFFCF79DFA064600BF00BF5B48046821
:103D800000BF00BF3046FCF797FA00BF00BF00BF7E
:103D900000BF00BFFCF78CFA064600BF00BF5448C6
:103DA0000078401C5249087000BF00BF3046FCF745
:103DB00083FA00BF00BF00BF94F8360008282DD258
:103DC000DFE800F004090E10080A0F11204601F088
:103DD0005FFE54E053E000BF204603F09DF84EE044
:103DE00000BF00BF00BF204603F096F894F83400EF
:103DF000082810D2DFE800F004070508090A0B06BE
:103E000000BF00BF08E000BF00BF00BF00BF2046EA
:103E100001F011FC00E000BF00BF30E000BF00BFB8
:103E200000BFFCF745FA064600BF00BF30480078E7
:103E3000401E2F49087008460078A0B92D48008818
:103E4000002809DD00BF00BF3046FCF735FA00BF8F
:103E500000BF01F04BFE0DE000BF00BF3046FCF795
:103E60002BFA00BF06E000BF00BF3046FCF724FA83
:103E700000BF00BF00BF46F62D60288067E700BF87
:103E800004F1640001F068FA204600F037F820469B
:103E900002F0F0F918480088401E174908802046B3
:103EA00002F01AFAFF2084F8360000BF00BF00BFFE
:103EB000FCF7FEF9064600BF00BF0D480078401E23
:103EC0000B49087000BF00BF3046FCF7F5F900BF92
:103ED00000BF00BF00202880FFF79CFB00BF36E733
:103EE000E800002084CC002048CD0020880100207C
:103EF00030010020F40000206401002010B50446C9
:103F00000348006818B1204601490968884710BD78
:103F1000CC0000207FB504460D46002600BF00BF40
:103F2000FCF7C6F9064600BF00BF1CB11548006883
:103F300084420AD100BF00BF3046FCF7BDF900BF84
:103F400000BF47F2571028807FBD00BF00BF30463A
:103F5000FCF7B2F900BF00BF0B48007800280BDD6A
:103F6000002000900190034602462146CDE902055B
:103F7000064800F061FFE7E72946204602F024FBEF
:103F800000BFE1E788010020E800002054524553BB
:103F900010B504460348006818B120460149096875
:103FA000884710BDD00000202DE9F04780460E461E
:103FB00014461D464FF000097D480078002805DDB5
:103FC00046F2AE1028800020BDE8F0871EB1B6F59D
:103FD000004F02D100E000BF04E045F625602880D4
:103FE0000020F1E700BF0CB10020206000BF00BF3F
:103FF000FCF75EF9814600BF00BF6E480068406C68
:10400000A8B36C480068406C401E6A49096848645F
:1040100068480068476C1CB166480068006C206006
:10402000FDF71AF863490968096C401A6149096883
:10403000C1F8A4005F480068D0F8A8005D4909688D
:10404000D1F8A410884207D25A480068D0F8A400DA
:1040500058490968C1F8A80000BF00BF4846FCF7EE
:104060002BF900BF00BF002028803846ACE7FFE7EF
:1040700006F4004058B100BF00BF4846FCF71CF9E9
:1040800000BF00BF46F2B010288000209CE74A48DD
:10409000007800280BDD00BF00BF4846FCF70CF994
:1040A00000BF00BF46F66350288000208CE700BFA9
:1040B00041480078401C4049087000BF00BF484696
:1040C000FCF7FAF800BF00BF00BF434607220021FB
:1040D000084601F0F5F900BF00BF00BFFCF7E8F8A3
:1040E000814600BF00BF34480078401E3249087046
:1040F00000BF00BF4846FCF7DFF800BF00BF00BFAD
:10410000FFF788FA00BF00BFFCF7D2F8814600BF76
:1041100000BF2848006890F8350020B1012826D05B
:10412000032834D12CE0FCB122480068006C2060E8
:10413000FCF792FF1F490968096C401A1D4909687C
:10414000C1F8A4001B480068D0F8A8001949096804
:10415000D1F8A410884207D216480068D0F8A4000D
:1041600014490968C1F8A8000020288013E01CB198
:1041700010480068006C206046F2A91028800AE010
:104180000CB10020206047F2D920288003E046F6D9
:104190002E60288000BF00BF06480068476C00BF43
:1041A00000BF4846FCF788F800BF00BF38460BE761
:1041B000E800002088010020300100202DE9F047B0
:1041C00005460E4617461C464FF0000A2E4800785A
:1041D000002804DD47F259102080BDE8F0871EB9A1
:1041E00046F2D5202080F8E71FB946F2D52020807E
:1041F000F3E700BF00BFFCF75BF8824600BF00BFDB
:104200000DB922480568286868B900BF00BF50464C
:10421000FCF752F800BF00BF00203060386047F262
:1042200052102080D9E795F83C0000F0010068B9F1
:1042300000BF00BF5046FCF73FF800BF00BF0020A2
:104240003060386047F254102080C6E700BF00BFDE
:104250005046FCF731F800BF00BF4FF00008D5F81A
:10426000249003E009F1040908F10108D9F80000DD
:104270000028F7D0C6F80080A86BA0EB08003860D3
:104280000020208000BFA8E7E8000020880100206F
:10429000F0B50446DDE9055602EB850020F0070085
:1042A0004FF0000C071F3846C7F800C04FF4805C81
:1042B000071F3846C7F800C04FF0150C071F3846D7
:1042C000C7F800C04FF0140C071F3846C7F800C0ED
:1042D0004FF0130C071F3846C7F800C04FF0120C00
:1042E000071F3846C7F800C04FF0110C071F3846AB
:1042F000C7F800C04FF0100C071F3846C7F800C0C1
:104300004FF0090C071F3846C7F800C04FF0080CE3
:10431000071F3846C7F800C04FF0070C071F384684
:10432000C7F800C04FF0060C071F3846C7F800C09A
:104330004FF0050C071F3846C7F800C04FF0040CBB
:10434000071F3846C7F800C04FF0030C071F384658
:10435000C7F800C04FF0020C071F3846C7F800C06E
:104360004FF0010C071F3846C7F800C04FF0000C93
:10437000071F3846C7F800C04FF0807C071F38463B
:10438000C7F800C0071F38463C60DFF85CC1071F54
:104390003846C7F800C04FF0123C071F3846C7F830
:1043A00000C04FF0033C071F3846C7F800C04FF06D
:1043B000023C071F3846C7F800C0071F38463B605D
:1043C000071F384639604FF0310C071F3846C7F8D1
:1043D00000C04FF0300C071F3846C7F800C04FF040
:1043E000290C071F3846C7F800C04FF0280C071FDC
:1043F0003846C7F800C04FF0270C071F3846C7F8EB
:1044000000C04FF0260C071F3846C7F800C04FF019
:10441000250C071F3846C7F800C04FF0240C071FB3
:104420003846C7F800C04FF0230C071F3846C7F8BE
:1044300000C04FF0220C071F3846C7F800C04FF0ED
:10444000210C071F3846C7F800C04FF0200C071F8B
:104450003846C7F800C04FF0190C071F3846C7F898
:1044600000C04FF0180C071F3846C7F800C04FF0C7
:10447000170C071F3846C7F800C04FF0160C071F6F
:104480003846C7F800C04FF0113C071F3846C7F840
:1044900000C04FF0103C071F3846C7F800C04FF06F
:1044A000093C071F3846C7F800C04FF0083C071FFB
:1044B0003846C7F800C04FF0073C071F3846C7F81A
:1044C00000C04FF0063C071F3846C7F800C04FF049
:1044D000053C071F3846C7F800C04FF0043C071FD3
:1044E0003846C7F800C0F0BD096700087FB505462B
:1044F0000C461248854203D147F25B1020807FBDF5
:104500000F48854203D147F25C102080F7E70D4841
:10451000007800280BDD0020009001900346024641
:104520002946CDE90204084800F086FCE7E7214669
:10453000284602F057FB00BFE1E7000084CC0020D2
:1045400048CD0020E80000205453555310B51D48B5
:10455000006810B11B4800688047FCF77DFD0446E9
:104560001948006819490968884215D0164800683A
:10457000D0F89800201A14490968C1F8940012482C
:104580000068D0F89C0010490968D1F894100844DC
:104590000D490968C1F89C000C480068C0F89840B3
:1045A00009480068D0F8B40009490968884205D272
:1045B0000748006804490968C1F8B40000200449AC
:1045C000086010BDDC000020880100208C01002064
:1045D0002C0100202DE9F04105460E461446002727
:1045E0003F480078002804DD47F275202080BDE8B0
:1045F000F0813C480078002803DD46F663502080B7
:10460000F5E736B1022E05D0042E0AD0082E09D1C6
:1046100001E000BF00BF1DB947F27E202080E6E721
:1046200004E003E045F625602080E0E700BF00BF1E
:1046300000BF00BFFBF73CFE074600BF00BF294894
:104640000078401C2749087000BF00BF3846FBF7C0
:1046500033FE00BF00BF00BF01202349096881F875
:1046600036002346324629461F48006802F076FB92
:104670002088A8B100BF00BF00BFFBF719FE0746A6
:1046800000BF00BF17480078401E1649087000BFE1
:1046900000BF3846FBF710FE00BF00BF00BFA6E713
:1046A0001148006801F0F4F900BF00BF00BFFBF73C
:1046B000FFFD074600BF00BF0A480078401E0949B9
:1046C000087000BF00BF3846FBF7F6FD00BF00BF13
:1046D00000BFFEF79FFF0020208000BF87E700009B
:1046E000E800002030010020880100202DE9FF5F54
:1046F00005460E4617469846DDE90EA400200090B8
:1047000072480078002804DD47F275202080BDE85B
:10471000FF9F6F480078002803DD46F66350208035
:10472000F5E70AF00E0BBBF1000F09D0BBF1020F49
:1047300007D0BBF1040F10D0BBF1080F0ED101E080
:1047400000BF00BFB8F1000F06D12FB926B91DB9BF
:1047500047F27E202080DAE704E003E045F625609A
:104760002080D4E700BF2AF01E0008B1012000E03D
:10477000002003900398012803D145F6256020808E
:10478000C5E7CAF3001002900298C0B9B8F57A7F65
:1047900003D347F27B202080B9E73B2F03DD47F2AC
:1047A0007A202080B3E73B2E03DD47F2792020807A
:1047B000ADE7632D12DD47F278202080A7E742F2B3
:1047C0000F70864203DD47F2792020809FE7B5F520
:1047D0007A7F03DB47F27820208098E73D48D0F8C5
:1047E00000904FF4FA70B0FBF9F0404400FB09F080
:1047F0004FF47A71B0FBF1F14FF461606843C6EB9E
:10480000061200EB8200384400FB09100190019869
:10481000002856D000BF00BF00BFFBF749FD009045
:1048200000BF00BF2A480078401C2949087000BF1B
:1048300000BF0098FBF740FD00BF00BF00BF012094
:104840002549096881F8360023465A4622480199CD
:10485000006802F083FA2088A8B100BF00BF00BF43
:10486000FBF726FD009000BF00BF19480078401EEE
:104870001749087000BF00BF0098FBF71DFD00BF7F
:1048800000BF00BF43E71448006801F001F900BF12
:1048900000BF00BFFBF70CFD009000BF00BF0C483D
:1048A0000078401E0A49087000BF00BF0098FBF75F
:1048B00003FD00BF00BF00BFFEF7ACFE002020805C
:1048C00002E047F27E20208000BF20E7E8000020C1
:1048D0003001002074A300088801002010B586B0C4
:1048E00000F01EF8FCF7B8FB044605A80021009173
:1048F000CDE9011403900748007800EB4000064A18
:1049000002EB800100231A46044800F095FA06B035
:1049100010BD00001601002018CE00205449434B62
:1049200010B50348006810B101480068804710BD09
:10493000E0000020244825482548264826482748E6
:10494000274828482848294829482A482A482B48DF
:104950002B482C482C482D482D482E482E482F48AF
:104960002F4830483048314831483248324833487F
:10497000334834483448354835483648364837484F
:10498000374838483848394839483A483A483B481F
:104990003B483C483C483D483D483E483E483F48EF
:1049A0003F484048404841484148424842484348BF
:1049B000434844484448454845484648464847488F
:1049C000474800BF70470000B8A3000820A50008B2
:1049D000BAA30008BBA30008BCA30008C0A300083A
:1049E000C4A30008C1A30008ECA30008EDA30008BD
:1049F000EEA30008F0A30008F2A30008F4A3000847
:104A0000F6A30008F8A3000818A400081AA40008D8
:104A10001CA400081EA4000820A4000822A400086A
:104A200024A4000850A4000851A4000852A40008BF
:104A300054A4000856A4000857A4000858A400086D
:104A40005AA400085CA400085EA4000860A4000842
:104A500062A4000864A4000894A4000895A40008B7
:104A600096A4000897A4000898A400089AA4000837
:104A70009CA40008C4A40008C5A40008C6A400089B
:104A8000C7A40008C8A40008CAA40008CCA4000851
:104A9000D0A40008D1A40008D2A40008D3A4000820
:104AA000D4A40008D5A40008D6A40008D7A4000800
:104AB000D8A40008DAA40008DBA40008DCA40008DD
:104AC000DEA40008E0A40008E1A40008E4A40008B3
:104AD00018A5000819A500081AA500081CA50008BB
:104AE0001EA500080021034A1160034A11800180BD
:104AF0007047000000010020040100202DE9F04F64
:104B000085B00446894692469B46DDF838800020F1
:104B1000009000BF00BFFBF7CBFB009000BF00BFC1
:104B2000BAF1000F0AD0BAF1010F0DD0BAF5004F5B
:104B300005D06FF40040504460B906E000BF206A21
:104B400040EA0900206214E000BF206A20EA090060
:104B500020620EE000BF00BF0098FBF7ADFB00BF76
:104B600000BF45F62560A8F80000002005B0BDE8AC
:104B7000F08F00BFC4F824B004F108000190019840
:104B8000008958B900BF00BF0098FBF795FB00BF34
:104B900000BF0020A8F80000206AE7E700BF6148D6
:104BA0000078401C5F49087000BF00BF0098FBF709
:104BB00083FB00BF00BF00BF01980768BD687FE0AE
:104BC0007868029095F8880000F00F000390039831
:104BD000012821D002282ED0042802D0082836D15E
:104BE0000EE0206AD5F8801000EA0106D5F88000B2
:104BF000B04204D15A463146284600F097F859E0B1
:104C0000206AD5F8801000EA010626B15A463146DE
:104C1000284600F08BF84DE0D5F88000216A20EAA4
:104C20000106D5F88000B04204D15A4631462846E4
:104C300000F07CF83EE0D5F88000216A20EA010609
:104C400026B15A463146284600F070F832E000BFDF
:104C500000BF00BFFBF72CFB009000BF00BF314836
:104C60000078401E2F49087008460078A0B92E48E9
:104C70000088002809DD00BF00BF0098FBF71CFB7F
:104C800000BF00BF00F032FF0DE000BF00BF009882
:104C9000FBF712FB00BF06E000BF00BF0098FBF768
:104CA0000BFB00BF00BF00BF43F6FF20A8F80000C9
:104CB00000205BE700BF029F0FB1BD6800E0002548
:104CC000002D7FF47DAF00BF00BF00BFFBF7F0FAFF
:104CD000009000BF00BF13480078401E11490870C3
:104CE00000BF00BF0098FBF7E7FA00BF00BF00BF9E
:104CF0000AF4004008B9FEF78DFC00BF00BFFBF7C7
:104D0000D7FA009000BF00BF206A049000BF00BF28
:104D10000098FBF7D1FA00BF00BF0020A8F8000000
:104D2000049823E730010020F400002070B5044609
:104D30000E46154634342665002060702070E5600C
:104D4000A078343C082816D2DFE800F004050809F2
:104D50000706101100BF00BF00BF0DE000BF2046D6
:104D600001F024FC002084F8360005E000BF042098
:104D700084F8360000E000BF00BF204600F05BFC76
:104D800070BD0000002400BF19E000BF00BFFBF7AA
:104D90008FFA044600BF00BF09480068401C08495C
:104DA000086008480068401C0649086000BF00BF52
:104DB0002046FBF781FA00BF00BFFEF7C3FAE4E725
:104DC000E40000204801002010B58AB0044600200D
:104DD0000E4908600B2000210591CDE907040691DA
:104DE00008460B4909680B4A12680B4B1B68CDE952
:104DF0000132CDE903103F200023084A08A10090AA
:104E00000C48FEF75FFE0AB010BD0000E400002071
:104E10001CA3000818A3000814A30008854D00086F
:104E200075432F4F532D4949492049646C652054DF
:104E300061736B0084CC00202DE9F84F04460D46C9
:104E400016461F46DDE90BABDDF82890DDF834800F
:104E50000020009000BF00BFFBF72AFA009000BFBF
:104E600000BF2B4800882B49098888423EDA284831
:104E70000088401C26490880274800880988884205
:104E800003DA234800882449088024480068046025
:104E900022480068856021480068C6601F48006895
:104EA00007821E480068C0F814901C480068A0F8EB
:104EB00018A01A480068C0F81CB01848006840687C
:104EC00016490860012016490881164808604860A4
:104ED000002000F07FFC1448007818B112480078D8
:104EE000124908700020A8F8000008E01048008867
:104EF000401C0F49088044F25360A8F8000000BF2E
:104F000000BF0098FBF7D8F900BF00BFBDE8F88FDD
:104F1000F400002028A30008F6000020EC00002088
:104F200018CE002048CD00201601002018010020D6
:104F3000F80000203EB5594800680068584A811AB8
:104F4000904279D00FDC5749084400283ED056499A
:104F50000844A8B155490844002860D05449084481
:104F600000286AD13FE053480844002850D05249F5
:104F70000844002862D0514908440028F1D110E0CB
:104F800002A8464D00902D68EB69444D2D682A8B90
:104F9000424D2D686969414D2D68A868FFF7AEFD47
:104FA0007AE002A93D480068C0693C4DCDE90001A6
:104FB0002D682B8B394D2D682A8A384D2D68E9686C
:104FC000364D2D68A86800F035FC65E0334B1B6852
:104FD000DA69324B1B68198B304B1B68986802AB3F
:104FE00000F04EFE58E002A92C480068C0692B4D25
:104FF000CDE900012D682B8B284D2D682A8A274D7D
:105000002D68E968254D2D68A86801F0C9F943E0CD
:1050100022490968886802A901F0D6FA3CE01F4BD2
:105020001B68DA691D4B1B68198B1C4B1B68986841
:1050300002AB01F075FB2FE007E02CE0174909688F
:10504000886802A901F0CEFD26E01D49097801EB30
:1050500041011C4A02EB810000F09EFD0F480068F0
:1050600002AB0021C269184801F05AFB17480068DA
:10507000401E164908600846006858B91448006880
:105080000860FBF7E9FF044602AB22460021114805
:1050900001F046FB00E000BF00BF3EBDF000002075
:1050A0005449434BADBAB2BE0DF90BFAF2F8F7FF13
:1050B0000006F6FF00F7FDF700FFEFFF03FE0FFE0F
:1050C0001801002018CE0020DCD10020840100202F
:1050D00080010020A0D20020002700BF4CE0002665
:1050E00048E000BF00BFFBF7E3F8074600BF00BF82
:1050F0002248008888B9002021490881086048605A
:1051000000F07AFB00BF00BF3846FBF7D5F800BFC0
:1051100000BFFEF77FFA01262CE000BF00BF384633
:10512000FBF7CAF800BF00BFFBF796FF0546FFF785
:1051300001FFFBF791FF441B12480068A04201D217
:105140001048046000BF00BFFBF7B2F8074600BF7D
:1051500000BF0D48006840680B4908600748008898
:10516000401E0649088000BF00BF3846FBF7A4F880
:1051700000BF00BF002EB4D0B1E70000F400002053
:1051800018CE0020FC000020F0000020F0B589B00F
:1051900005460020314908803148006820B944F2B2
:1051A0005260288009B0F0BD2E480088022803DA3A
:1051B00044F254602880F5E700202B490860284815
:1051C00004682646203600270CE02848206000208E
:1051D000A060E06020826061208366602034203619
:1051E000781C87B21F4800888742EEDB203C1C48B1
:1051F000066866601E4806601E48066000201E495C
:1052000008801E4908801E48006818B944F255609D
:105210002880C7E71B4800681B490968884203D2F9
:1052200044F256602880BDE7032000210591CDE9B6
:105230000705069113480068144A1268104B1B6852
:10524000CDE90301CDE9013200910B46104A11A1CD
:105250001748FEF737FC00BFA4E70000F800002065
:1052600024A3000828A30008FC0000204E4F4E4550
:10527000EC000020F0000020F4000020F6000020E8
:1052800030A3000838A3000870A3000834A3000866
:10529000D950000875432F4F532D49494920495390
:1052A00052205175657565205461736B00000000D4
:1052B00048CD00200021034A1160034A118001807B
:1052C00070470000080100200C01002070B5024664
:1052D0000B461046114610315E1EB5B2002408E0A0
:1052E0000160002646600681C66010301031661CE1
:1052F000B4B2AC42F4DB0026066046600681C660AC
:1053000070BD000010B504461048006818B945F299
:105310001E70208010BD0E48008818B945F21D701F
:105320002080F7E70A48018808480068FFF7CEFFA9
:105330000648006807490860054800888880002002
:10534000C8800881208000BFE4E7000054A3000863
:105350004CA300080CCE002010B5014648894B89AB
:10536000002B17DD0A680C4B1B6813600A4C4B6856
:1053700023602346DB884C891B1B074CE3802346B4
:105380009B884C892344044CA38000234B818B8150
:105390000B604B6010BD00000CCE0020018100228C
:1053A0004281828102604260704700002DE9F04135
:1053B0000D46DDE90674B0F80AC0B0F80880C445AF
:1053C00005DB46F2935CA4F800C0BDE8F081DFF88D
:1053D000D4C0BCF804C0BCF1000F04D145F21D7C60
:1053E000A4F800C0F1E7DFF8BCC0DCF80010DFF87B
:1053F000B480D1F800C0C8F800C0C446BCF804C0EE
:10540000ACF1010CA8F804C0C446BCF806C00CF10D
:10541000010CA8F806C0C446BCF808C0B8F806805D
:10542000C44507DADFF87CC0BCF806C0DFF874803A
:10543000A8F808C0B0F80AC0BCF1000F06D101609E
:1054400041604FF0010CA0F80AC017E003F0100C07
:10545000BCF1000F07D1066831604FF0000CC1F8B5
:1054600000C0016004E0D0F804C0C1F800C0416091
:10547000B0F80AC00CF1010CA0F80AC0B0F80CC0DA
:10548000B0F80A80C44503DAB0F80AC0A0F80CC02E
:105490004D600A81CF604FF0000CA4F800C000BF3F
:1054A00093E700000CCE00200021034A1160034A5C
:1054B00011800180704700001001002014010020BD
:1054C0002DE9F04105460C4616461F461548006872
:1054D00080F8346000201349096881F835003946A6
:1054E0001048006800F092FE6CB104F10808EC600E
:1054F000012229460B48006800F016F8294640466C
:1055000000F066F806E0002006490968C8870549EA
:105510000968086303480168204600F019F8BDE8EF
:10552000F08100008801002010B5C28701630023CC
:105530000AE000244C600C600C614C610C83CC616F
:10554000886020315C1CA3B29342F2DB10BD0000E6
:1055500030B548B14568C1F8C05000F10804226870
:1055600093681D6AC56113E091F83450022D02D092
:10557000072D08D103E007A5C1F8C05007E007A533
:10558000C1F8C05003E008A5C1F8C05000BF00BF7B
:1055900030BD00005461736B205100005461736B87
:1055A0002053656D000000002000000030B507A505
:1055B000C1F8C05000F1080422681AB193681D6A4E
:1055C000C56101E001A5C56130BD000020000000FB
:1055D000F0B58E6896F8375007893FB901270781E3
:1055E00000274F600F600160416023E007897F1C46
:1055F0000781026806E0946894F83770AF4200DDD6
:1056000002E05268002AF6D100BF32B900274F608D
:1056100043680B60596041600CE017682FB9116056
:1056200000270F604A60016004E013680B604A6065
:1056300059601160F0BD2DE9F0410446256BE68FFD
:105640000AE0D5F80C8008F108072946384600F032
:105650000AF82035701E86B2002EF2DC0020E087AA
:105660002063BDE8F08110B50489012C03D100242A
:105670000460446011E00C6824B94A680024146096
:1056800002600AE04C6824B90B6800245C60436047
:1056900003E00B684A685A6013600489641E048141
:1056A00000244C600C6010BD2DE9F84306460C4602
:1056B00017469846089D94F83600082850D2DFE82F
:1056C00000F00405080906072B2C00BF00BF00BF2F
:1056D00047E000BF94F83400032807D143463A4618
:1056E00021463046009500F03FF803E0E765A4F856
:1056F0006080256436B12046FFF79DFF2146304685
:10570000FFF754FF204600F051FF00203434A07012
:10571000607004F8340924E000BF94F834000328D2
:1057200007D143463A4621463046009500F01CF822
:1057300003E0E765A4F860802564204601F0ECFBF7
:1057400036B12046FFF777FF21463046FFF72EFFA0
:1057500004203434A0700020607004F8340900E0A4
:1057600000BF00BFBDE8F883F0B50446059E086B96
:10577000CD8F0AE0C768A74204D104614261038368
:10578000C66104E020306F1EBDB2002DF2DC00BF08
:10579000F0BD000070B50025074C03E005F12000C6
:1057A000C5B2241D20680028F8D02068FAF78BFDC8
:1057B0002844C5B2284670BDC0000020002004E087
:1057C0000021034A42F82010401C0228F8D37047F9
:1057D000C000002030B5420900F01F030121C3F1D1
:1057E0001F04A140034C54F822400C43014D45F8DE
:1057F000224030BDC000002030B5420900F01F0338
:105800000121C3F11F04A140034C54F822408C43F2
:10581000014D45F8224030BDC00000200021034A60
:105820001160034A11800180704700001C010020B4
:10583000200100202DE9F04F85B007468A469346A7
:105840001C460020029000BF00BF00BFFAF730FDE9
:10585000029000BF00BF48480078401C46490870CD
:1058600000BF00BF0298FAF727FD00BF00BF00BFCE
:1058700007F108063089002842D104F0100010B961
:105880004FF0000801E04FF01008DDE90E0143463B
:105890005A46CDE90001514607F12000FFF786FD89
:1058A00000BF00BF00BFFAF703FD029000BF00BFBA
:1058B00031480078401E3049087008460078A0B989
:1058C0002E480088002809DD00BF00BF0298FAF7C3
:1058D000F3FC00BF00BF00F009F90DE000BF00BFFE
:1058E0000298FAF7E9FC00BF06E000BF00BF02988B
:1058F000FAF7E2FC00BF00BF00BF05B0BDE8F08FC3
:1059000004F4007008B1358900E00125D6F8009054
:1059100011E0D9F808000390D9F8040004900E981B
:105920005B465246009038460399FFF7BDFEDDF80E
:105930001090681E85B2002DEBD100BF00BF00BFE4
:10594000FAF7B6FC029000BF00BF0B480078401E7B
:105950000949087000BF00BF0298FAF7ADFC00BF0C
:1059600000BF00BF04F4004008B9FDF753FE00215A
:105970000F98018000BFC0E730010020F400002034
:1059800000210AE001EB4102054B03EB82000022FB
:105990000281026042604A1CD1B24029F2D37047B2
:1059A00018CE002010B5044694F83700FFF712FF18
:1059B00094F8370005490978884203D1204600F061
:1059C00027F802E0204600F003F810BD1601002081
:1059D00010B590F8373003EB43030C4C04EB830114
:1059E0000B893BB901230B810023C360036108606D
:1059F000486009E00B895B1C0B810B68C3600023C6
:105A000003610A681061086010BD000018CE002014
:105A100010B590F8373003EB43030B4C04EB8301D4
:105A20000B893BB901230B810023C360036108602C
:105A3000486008E00B895B1C0B810023C3604A6847
:105A40000261D060486010BD18CE002010B501463C
:105A50000C8924B1012C03D0022C0CD101E000BF31
:105A600014E008684A6802610024C4601461D060D0
:105A70000A6048600AE008684A68C36800241C613C
:105A8000C4600261D0600B60486000BF00BF10BD01
:105A90002DE9F041054695F8370000EB400012492A
:105AA00001EB80042F69EE6887B946B90020208198
:105AB0002060606095F83700FFF79EFE0EE02089B9
:105AC000401E208100203061266007E02089401EB2
:105AD0002081FE600EB9676000E037610020286118
